:100000000C9440000C9468000C9468000C946800F8
:100010000C9468000C9468000C9468000C946800C0
:100020000C9468000C9468000C9468000C946800B0
:100030000C9468000C9468000C9468000C946800A0
:100040000C9468000C9468000C9468000C94680090
:100050000C9468000C9468000C9468000C94680080
:100060000C9468000C9468000C9468000C94680070
:100070000C9468000C9468000C946800F5050D065B
:1000800011241FBECFEFD8E0DEBFCDBF11E0A0E04E
:10009000B1E0E2EFF1E102C005900D92A836B107A0
:1000A000D9F721E0A8E6B1E001C01D92A437B2075C
:1000B000E1F710E0CFE3D0E004C02197FE010E94F9
:1000C0001506CE33D107C9F70E94CD050C94EC0874
:1000D0000C940000482F80910001882389F06091E2
:1000E0006A0181E0860F80936A0170E08BE691E0FF
:1000F0000E945A048FE097E20197F1F700C00000D8
:10010000089548EC50E068EC70E080E791E00E94D0
:10011000C5052FEF81EE94E0215080409040E1F73B
:1001200000C0000088EC0E946A0088EC0C946A0011
:1001300063E08EE691E00E9431059695879596954D
:1001400087950596089564E08EE691E00E9431055A
:100150009695879596958795089567E08EE691E048
:100160000C94310587B187B98AB18AB984B18FEF10
:1001700084B981B181B9089542E06FE08DE691E0E4
:100180000E9483050E94AD008A3A910578F44EE6FC
:1001900050E06EE670E080E791E00E94C5058EE6D3
:1001A0000E946A008EE60E946A00ECCF81E090E037
:1001B000909373018093720108951F93CF93DF93FF
:1001C00081E08093010111E0C2E0D0E08091010163
:1001D000882309F463C00E94AD008F359140A0F0E0
:1001E0000E94AD008039914078F44EE650E06EE612
:1001F00070E080E791E00E94C5058EE60E946A00EB
:100200008EE60E946A00E7CF0E94AD0081399140DE
:1002100010F14EE650E061E970E080E791E00E9465
:10022000C50581E90E946A008EE60E946A00ECCF53
:100230000E94AD008B3A910598F041E950E06EE6DE
:1002400070E080E791E00E94C5058EE60E946A009A
:1002500081E90E946A000E94AD008E35914040F312
:100260000E94AD008A3A910508F0B0CF50E040E01E
:1002700070E060E080E791E00E94C50580E00E94A8
:100280006A0080E00E946A008091010181278093CA
:100290000101D0937301C093720198CFDF91CF9188
:1002A0001F910895FF920F931F93CF93DF931092A6
:1002B0006801C1E0D4E085E0F82E03E010E0809111
:1002C0006801811135C00E949800853B910550F16D
:1002D000D093720110927301809168018C278093F2
:1002E000680162E08FE691E00E945405882349F09E
:1002F000F092720110927301809168018C278093B3
:10030000680165E08FE691E00E9454058823B9F208
:100310001093730100937201809168018C27809380
:100320006801CDCF0E94A300853B910588F6D9CF07
:10033000DF91CF911F910F91FF9008958F929F921F
:10034000AF92BF92CF92DF92EF92FF920F931F93E3
:10035000CF93DF930F92CDB7DEB7CE0101965C014C
:100360000E9411030E94A3007C01982E0E94980015
:100370008C01882E0E948100DA2CCB2C1127FF24BF
:100380000E949800853B9105E8F0A801B70180E73D
:1003900091E00E94C505892D0E946A00882D0E9467
:1003A0006A00692D8D2D9C2D0E943E036AE271E04A
:1003B0008D2D9C2D0E941A03682D8D2D9C2D0E9441
:1003C0003E03DECF0E94A300853B9105F0F650E08E
:1003D00040E070E060E080E791E00E94C5050E9487
:1003E000AD008139914030F081E090E0909373014D
:1003F000809372010F90DF91CF911F910F91FF9029
:10040000EF90DF90CF90BF90AF909F908F90089526
:100410000E94AD008F35914068F48DE691E00E9416
:100420009D054BE950E064E670E080E791E00E94B2
:10043000C505EECF1092000181E090E0909373012A
:10044000809372010895CF92DF92EF92FF920F9303
:100450001F93CF93DF9300D00F92CDB7DEB77E010D
:1004600083E0E80EF11CC7010E94110341E06FE038
:100470008DE691E00E9483051A82198210E000E067
:10048000670180916A0180171106A9F1A4F1AE01FC
:100490004E5F5F4FB8018BE691E00E9493038FE0BF
:1004A00097E20197F1F700C00000780192E0E90EB1
:1004B000F11CB8016F5F7F4FAE014F5F5F4F8BE65E
:1004C00091E00E9493038FE097E20197F1F700C05B
:1004D0000000498150E06A8170E080E791E00E946D
:1004E000C5056A81C6010E943E036981C6010E945A
:1004F0003E038701C6CF85E090E09093730180931F
:1005000072010F900F900F90DF91CF911F910F917B
:10051000FF90EF90DF90CF90089565E08FE691E037
:100520000E94540581110E94230262E08FE691E04F
:100530000E945405882351F01092730110927201A9
:1005400042E06FE08DE691E00C94830508950F93EF
:100550001F93CF93DF930F92CDB7DEB78E010F5F5E
:100560001F4FC8010E941103809172019091730185
:1005700083309105D9F194F48130910511F18230E5
:10058000910549F10097A1F70E94810063E071E0B5
:10059000C8010E941A030E94BC00E6CF8430910576
:1005A00011F18530910521F70E948D0265E471E01B
:1005B000C8010E941A030F90DF91CF911F910F91F4
:1005C000089564E171E0C8010E941A030E9481004D
:1005D0000E94DD00C9CF61E271E0C8010E941A03E8
:1005E0000E945201C1CF0E949E01BECF0E94810095
:1005F0006CE271E0C8010E941A030E94080267E3DE
:1006000071E0C8010E941A03AFCF1092C5008FECB1
:100610008093C40088E18093C1008EE08093C20083
:1006200008950C9405038091C00085FFFCCF609372
:10063000C6000895EF92FF921F93CF93DF93182F78
:10064000D92F7B01C0E0F701EC0FF11D608166231B
:1006500031F0812F9D2F0E941303CF5FF4CFDF91E4
:10066000CF911F91FF90EF9008958091C00087FF78
:10067000FCCF8091C60008950C941303EF92FF9273
:100680000F931F93CF93DF93CDB7DEB72A970FB6A3
:10069000F894DEBF0FBECDBF8C011F926F9384E62E
:1006A00091E09F938F93CE0101967C019F938F934E
:1006B0000E941B06B701C8010E941A030F900F90F9
:1006C0000F900F900F900F902A960FB6F894DEBF00
:1006D0000FBECDBFDF91CF911F910F91FF90EF9093
:1006E00008958091C00085FFFCCF6093C6000895F7
:1006F000089580EA809302011092B90080E280930D
:10070000B8000895FC0180E88083CF010C94790340
:10071000982F9370891305C0880F806A8093020117
:1007200008958FEF0895FA0194EA24E89093BC00AD
:100730008091BC0087FFFCCF809102018093BB00B9
:100740002093BC008091BC0087FFFCCF8091B90052
:10075000883161F784EA8093BC008091BC0087FFF8
:10076000FCCF809102018093BB0084E88093BC00A1
:100770008091BC0087FFFCCF7093BB0084E880931E
:10078000BC008091BC0087FFFCCF6093BB0084E875
:100790008093BC008091BC0087FFFCCF8091BC009F
:1007A00087FFFCCF84EA8093BC008091BC0087FF68
:1007B000FCCF809102018F5F8093BB0084E880931F
:1007C000BC008091BC0087FFFCCF84E88093BC0014
:1007D0008091BC0087FFFCCF8091BB00808384E9BF
:1007E0008093BC0080E0089594EA34E89093BC00C4
:1007F0008091BC0087FFFCCF809102018093BB00F9
:100800003093BC008091BC0087FFFCCF8091B90081
:10081000883161F784EA8093BC008091BC0087FF37
:10082000FCCF809102018093BB0084E88093BC00E0
:100830008091BC0087FFFCCF7093BB0084E880935D
:10084000BC008091BC0087FFFCCF6093BB0084E8B4
:100850008093BC008091BC0087FFFCCF84EA80932A
:10086000BC008091BC0087FFFCCF809102018F5FAC
:100870008093BB0084E88093BC008091BC0087FF1C
:10088000FCCF84EC222389F0213009F484E88093A2
:10089000BC009091BC0097FD06C0FA019091BB008E
:1008A0009193AF01F6CF2150EDCF84E98093BC0046
:1008B00080E0089594EA24E89093BC008091BC0005
:1008C00087FFFCCF809102018093BB002093BC0086
:1008D0008091BC0087FFFCCF8091B900883161F71F
:1008E00084EA8093BC008091BC0087FFFCCF80919C
:1008F00002018093BB0084E88093BC008091BC001F
:1009000087FFFCCF7093BB0084E88093BC0080918C
:10091000BC0087FFFCCF6093BB0084E88093BC00E1
:100920008091BC0087FFFCCF4093BB0084E880939C
:10093000BC008091BC0087FFFCCF84E98093BC00A1
:1009400080E00895FB01260F372F311DDC018C91CB
:100950008150990B862B9F2B2817390718F09C0183
:100960002F5F3F4F822F8E1B24EA34E82093BC0078
:100970009091BC0097FFFCCF909102019093BB0037
:100980003093BC009091BC0097FFFCCF9091B900D0
:10099000983161F794EA9093BC009091BC0097FF66
:1009A000FCCF909102019093BB0094E89093BC001F
:1009B0009091BC0097FFFCCFF093BB0094E890931C
:1009C000BC009091BC0097FFFCCFE093BB0094E883
:1009D0009093BC009091BC0097FFFCCF982F24E827
:1009E000992369F0FA0131913093BB002093BC0048
:1009F0003091BC0037FFFCCF9150AF01F1CF94E9AB
:100A00009093BC000895DF92EF92FF920F931F9393
:100A1000CF93DF93D82ED92F7B018A01C22F2C2FA1
:100A2000A801B7018D2D9D2F0E94A204282F30E030
:100A3000E20EF31EC81B020F131FC111F0CF80E09E
:100A4000DF91CF911F910F91FF90EF90DF9008956C
:100A500010927C0086E880937A00089510927A00C4
:100A6000089580917C00807E80937C0080917C0042
:100A70006770682B60937C0080917A00806480931B
:100A80007A0080917A0084FFFCCF80917A008061A7
:100A900080937A00209178008091790090E0982FDF
:100AA0008827820F911D089589B190E0062E02C01B
:100AB000959587950A94E2F780FF0FC08FE19EE439
:100AC0000197F1F700C0000089B190E002C0959550
:100AD00087956A95E2F78170089580E0089584B162
:100AE0008FEF84B90895CB01892B11F415B80895BF
:100AF0006130710519F482E085B90895623071059D
:100B0000E1F781E0F9CF80E08617B1F045B92FEF2A
:100B100030E792E0215030409040E1F700C0000003
:100B200015B82FEF30E792E0215030409040E1F7C8
:100B300000C000008F5FE8CF089582E085B98FE4A0
:100B400093EC0197F1F700C0000081E085B98FE4D4
:100B500093EC0197F1F700C000000895FC01608359
:100B6000418354B121E030E0C90101C0880F6A958A
:100B7000EAF701C0220F4A95EAF7822B852B88619C
:100B800084B9089517BC18BC089515B867BD48BD51
:100B900081EA84BD82E085BD08950F92CDB7DEB7AE
:100BA0008E010F5F1F4FC8010E9411030E94B20007
:100BB00062E08FE691E00E945405882339F063E5F6
:100BC00071E0C8010E941A030E94A70265E08FE647
:100BD00091E00E945405882359F36DE571E0C80146
:100BE0000E941A030E942302E3CF46E065E080E7FB
:100BF00091E00E94AE058AB18AB98EE691E00E942A
:100C000028058DE691E00E946F058CE691E00E9438
:100C100011038BE691E00C9482038BE691E00E9435
:100C200078038EE691E00C942E05EE0FFF1F0590E1
:100C3000F491E02D0994AEE0B0E0E1E2F6E00C942E
:100C4000C3080D891E8986E08C831A8309838FEF80
:100C50009FE79E838D83AE01475E5F4F6F89788DDE
:100C6000CE0101960E943E062F813885020F131F88
:100C7000F80110822E96E4E00C94DF08AFE0B0E0BB
:100C8000E4E4F6E00C94B5087C013B018A01DC0148
:100C900017961C921E92169713968C9181FFBEC1D7
:100CA0009AE0292EFE0131964F01D70113969C91AF
:100CB000F30193FD859193FF81913F01882309F40E
:100CC00044C1853239F493FD859193FF81913F01B1
:100CD000853229F4B70190E00E942708E6CFB12CB5
:100CE000412C512CBFE1B51538F08B3209F188F455
:100CF000803201F1833221F157FC3AC020ED280FF8
:100D00002A3040F556FE1FC0B29C200D1124B22E91
:100D100006C08D3291F0803379F7689450F8F30172
:100D200093FD859193FF81913F018111DBCF20C01D
:100D3000689451F8689452F8F2CF689453F8EFCF62
:100D4000689454F8ECCF429C200D1124422E6894F4
:100D500055F8E5CF8E3229F456FCF7C0689456F862
:100D6000DECF8C3619F4689457F8D9CF8836B9F2AB
:100D7000982F9F7D95549330C0F08336A1F183372F
:100D8000C1F1833509F05BC0D801CD90DD908D01B4
:100D90006B2D70E056FC02C06FEF7FEFC6010E9422
:100DA00011085C01689457F80AC00C5F1F4FEFE30D
:100DB000E983AA24A394B12C6401E89457F853FC66
:100DC00004C04A141B0409F018F5342CA114B10412
:100DD00031F5332009F469CFB70180E290E00E9439
:100DE00027083A94F6CFD8018C9189830E5F1F4F64
:100DF000E0CFF801C190D1908F016B2D70E056FCCF
:100E000002C06FEF7FEFC6010E941C085C01D5CFC6
:100E1000B70180E290E00E9427084A94D2CFF60101
:100E200057FC859157FE81916F01B70190E00E94B8
:100E3000270831103A94B1E0AB1AB108C7CF843615
:100E400019F0893609F071C0F80157FE67C0619149
:100E50007191819191918F01E52DEF76DE2E97FFB3
:100E600009C090958095709561957F4F8F4F9F4FEA
:100E70006894D7F82AE030E0A4010E945708C82EF1
:100E8000C818AC2C5D2CD6FE0CC0E89450F8CB14DE
:100E900040F4D4FE05C0D2FC03C05D2D5E7E552E0D
:100EA000AB2C54FE93C0FE01EC0DF11D808180330C
:100EB00009F085C0652D697E562E752D7870372E08
:100EC00053FC93C050FE8DC0BC2CA41410F4B40C81
:100ED000BA1854FE90C0B70180E390E00E94270842
:100EE00052FE07C088E751FC88E590E0B7010E94F8
:100EF0002708CB1408F48BC0CA94D12C8FEFC81AE2
:100F0000D80AC80CD91CD6018E916D01B70190E0AA
:100F10000E9427088C149D04B1F75BCF61917191F9
:100F2000072E000C880B990B96CFD52CE894D4F89B
:100F30002AE0853729F1F52DF97FDF2E8037A1F0E2
:100F400058F48835A1F08F36D1F0F701868197816A
:100F50002F96E2E10C94D1088837B9F7D4FE02C08D
:100F60006894D2F820E10CC06894D4F8F7CF54FE0E
:100F700003C02F2F2660D22E20E132E002C028E0ED
:100F800030E0F801D7FE15C0419151916191719106
:100F90004C875D876E877F878F01A4016C857D8577
:100FA0008E859F850E945708C82EC818E894D7F8E8
:100FB00068CF81919191AC0170E060E0E9CF52FC83
:100FC00002C0A3947ACFA394A39477CF852D86787B
:100FD00009F473CFF6CFB70180E290E00E942708B2
:100FE000A394A414C0F3312C74CF342C3A18A41455
:100FF00008F46FCFF8CF852D867809F47ACF8BE28D
:1010000051FE80E257FC8DE2B70190E070CFB7014E
:1010100080E390E00E942708BA946BCF8FEF9FEF98
:1010200097CFFC010590615070400110D8F7809572
:1010300090958E0F9F1F0895FC01615070400190A4
:101040000110D8F7809590958E0F9F1F08950F93EC
:101050001F93CF93DF93182F092FEB018B8181FD15
:1010600009C01FEF0FEF812F902FDF91CF911F91BC
:101070000F91089582FF14C02E813F818C819D8144
:10108000281739073CF4E881F981CF01019699834B
:10109000888310838E819F8101969F838E83E3CF07
:1010A000E885F985812F0995892BA1F3DACFFA011B
:1010B000AA27283051F1203181F1E8946F936E7F97
:1010C0006E5F7F4F8F4F9F4FAF4FB1E03ED0B4E088
:1010D0003CD0670F781F891F9A1FA11D680F791FC9
:1010E0008A1F911DA11D6A0F711D811D911DA11DDA
:1010F00020D009F468943F912AE0269F11243019EA
:10110000305D3193DEF6CF010895462F4770405D84
:101110004193B3E00FD0C9F7F6CF462F4F70405D33
:101120004A3318F0495D31FD4052419302D0A9F78E
:10113000EACFB4E0A6959795879577956795BA9588
:10114000C9F700976105710508959B01AC010A2E4E
:1011500006945795479537952795BA95C9F7620F25
:10116000731F841F951FA01D08952F923F924F92C9
:101170005F926F927F928F929F92AF92BF92CF9227
:10118000DF92EF92FF920F931F93CF93DF93CDB730
:10119000DEB7CA1BDB0B0FB6F894DEBF0FBECDBFA8
:1011A00009942A88398848885F846E847D848C8479
:1011B0009B84AA84B984C884DF80EE80FD800C8182
:1011C0001B81AA81B981CE0FD11D0FB6F894DEBF65
:1011D0000FBECDBFED01089510E0CFE3D0E004C015
:1011E000FE010E9415062196C034D107C9F7F89474
:0211F000FFCF2F
:1011F2000101A0646562757420706172636F75721B
:10120200732D2D00737569767265206D75722D2DA3
:1012120000617474656E6472652D2D0064656D697C
:10122200746F75722D2D0064656D69746F75722D02
:10123200666169740066696E506172636F7572737C
:101242002D2D00696E7465727275707400626F7410
:081252006F6E2D002564000001
:00000001FF
