:100000000C9440000C9468000C9468000C946800F8
:100010000C9468000C9468000C9468000C946800C0
:100020000C9468000C9468000C9468000C946800B0
:100030000C9468000C9468000C9468000C946800A0
:100040000C9468000C9468000C9468000C94680090
:100050000C9468000C9468000C9468000C94680080
:100060000C9468000C9468000C9468000C94680070
:100070000C9468000C9468000C9468000F0413043E
:1000800011241FBECFEFD8E0DEBFCDBF11E0A0E04E
:10009000B1E0E6EFFDE002C005900D92A430B1079B
:1000A000D9F721E0A4E0B1E001C01D92A530B2076C
:1000B000E1F710E0CFE3D0E004C02197FE010E94F9
:1000C0001704CE33D107C9F70E9471030C94EE06D2
:1000D0000C94000063E084E091E00E94AA029695EF
:1000E0008795969587954496089565E084E091E01C
:1000F0000E94AA02969587959695879508951092E5
:10010000C5008FEC8093C40088E18093C1008EE02D
:100110008093C20008950C947F008091C00085FFF9
:10012000FCCF6093C6000895EF92FF921F93CF9388
:10013000DF93182FD92F7B01C0E0F701EC0FF11DE1
:100140006081662331F0812F9D2F0E948D00CF5F4B
:10015000F4CFDF91CF911F91FF90EF9008958091A0
:10016000C00087FFFCCF8091C60008950C948D00DD
:10017000EF92FF920F931F93CF93DF93CDB7DEB72C
:100180002A970FB6F894DEBF0FBECDBF8C011F9229
:100190006F9381E091E09F938F93CE0101967C0154
:1001A0009F938F930E941D04B701C8010E94940081
:1001B0000F900F900F900F900F900F902A960FB600
:1001C000F894DEBF0FBECDBFDF91CF911F910F918D
:1001D000FF90EF9008958091C00085FFFCCF609361
:1001E000C6000895089580EA809300011092B90036
:1001F00080E28093B8000895FC0180E88083CF01FD
:100200000C94F300982F9370891305C0880F806AAF
:100210008093000108958FEF0895FA0194EA24E88D
:100220009093BC008091BC0087FFFCCF80910001BF
:100230008093BB002093BC008091BC0087FFFCCF63
:100240008091B900883161F784EA8093BC00809185
:10025000BC0087FFFCCF809100018093BB0084E845
:100260008093BC008091BC0087FFFCCF7093BB00E3
:1002700084E88093BC008091BC0087FFFCCF609332
:10028000BB0084E88093BC008091BC0087FFFCCF5A
:100290008091BC0087FFFCCF84EA8093BC008091F2
:1002A000BC0087FFFCCF809100018F5F8093BB0073
:1002B00084E88093BC008091BC0087FFFCCF84E879
:1002C0008093BC008091BC0087FFFCCF8091BB0075
:1002D000808384E98093BC0080E0089594EA34E848
:1002E0009093BC008091BC0087FFFCCF80910001FF
:1002F0008093BB003093BC008091BC0087FFFCCF93
:100300008091B900883161F784EA8093BC008091C4
:10031000BC0087FFFCCF809100018093BB0084E884
:100320008093BC008091BC0087FFFCCF7093BB0022
:1003300084E88093BC008091BC0087FFFCCF609371
:10034000BB0084E88093BC008091BC0087FFFCCF99
:1003500084EA8093BC008091BC0087FFFCCF809131
:1003600000018F5F8093BB0084E88093BC00809184
:10037000BC0087FFFCCF84EC222381F0213009F4FC
:1003800084E88093BC009091BC0097FFFCCFFA01F9
:100390009091BB0091932150AF01EECF84E98093FF
:1003A000BC0080E0089594EA24E89093BC0080911A
:1003B000BC0087FFFCCF809100018093BB0020939D
:1003C000BC008091BC0087FFFCCF8091B9008831D0
:1003D00061F784EA8093BC008091BC0087FFFCCF6A
:1003E000809100018093BB0084E88093BC008091E1
:1003F000BC0087FFFCCF7093BB0084E88093BC00F7
:100400008091BC0087FFFCCF6093BB0084E88093A1
:10041000BC008091BC0087FFFCCF4093BB0084E808
:100420008093BC008091BC0087FFFCCF84E980935F
:10043000BC0080E00895FB01260F372F311DDC0141
:100440008C918150990B862B9F2B2817390718F018
:100450009C012F5F3F4F822F8E1B24EA34E82093AC
:10046000BC009091BC0097FFFCCF9091000190934D
:10047000BB003093BC009091BC0097FFFCCF9091E3
:10048000B900983161F794EA9093BC009091BC0058
:1004900097FFFCCF909100019093BB0094E890935C
:1004A000BC009091BC0097FFFCCFF093BB0094E898
:1004B0009093BC009091BC0097FFFCCFE093BB00F1
:1004C00094E89093BC009091BC0097FFFCCF982FCC
:1004D00024E8992369F0FA0131913093BB0020930D
:1004E000BC003091BC0037FFFCCF9150AF01F1CF81
:1004F00094E99093BC000895DF92EF92FF920F93DE
:100500001F93CF93DF93D82ED92F7B018A01C22F5F
:100510002C2FA801B7018D2D9D2F0E941B02282F83
:1005200030E0E20EF31EC81B020F131FC111F0CF03
:1005300080E0DF91CF911F910F91FF90EF90DF90BE
:10054000089510927C0086E880937A0008951092B6
:100550007A00089580917C00807E80937C00809159
:100560007C006770682B60937C0080917A008064C7
:1005700080937A0080917A0084FFFCCF80917A008A
:10058000806180937A00209178008091790090E0DA
:10059000982F8827820F911D089584B18FEF84B919
:1005A0000895CB01892B11F415B8089561307105B8
:1005B00019F482E085B9089562307105E1F781E0B0
:1005C000F9CF80E08617B1F045B92FEF30E792E020
:1005D000215030409040E1F700C0000015B82FEFE7
:1005E00030E792E0215030409040E1F700C0000039
:1005F0008F5FE8CF089580E021E092E0861781F0D8
:1006000025B9EFE4F3EC3197F1F700C0000095B99C
:10061000EFE4F3EC3197F1F700C000008F5FEECF0D
:100620000895FC016083418354B121E030E0C901A9
:1006300001C0880F6A95EAF701C0220F4A95EAF7D0
:10064000822B852B886184B90895FC0167BD68BD44
:1006500045B1208181E090E0BC0102C0660F771FA8
:100660002A95E2F79B012095242325B925B13181F4
:1006700001C0880F3A95EAF78095822385B916BCA8
:1006800081EA84BD82E085BD0895FC0115B867BD8F
:1006900068BD45B1208181E090E0BC0102C0660FD9
:1006A000771F2A95E2F79B012095242B25B925B1C8
:1006B000318101C0880F3A95EAF78095822B85B980
:1006C00016BC81EA84BD82E085BD089517BC18BCC4
:1006D000089515B867BD48BD81EA84BD82E085BD37
:1006E000089500D000D00F92CDB7DEB717B88FEFC6
:1006F00084B911B81AB846E065E0CE0101967C01D4
:100700000E94110381B181B98E010B5F1F4FC80197
:100710000E94CD02CE0104960E948B006E0193E0F0
:10072000C90ED11CC6010E94FC0081B181B967E0ED
:1007300084E091E00E94AA028D3D9105A8F067E057
:1007400084E091E00E94AA028E30914068F444E671
:1007500050E064E670E0C7010E94690341E064E094
:10076000C8010E94E102E3CF67E084E091E00E94CB
:10077000AA028C3D9105A8F467E084E091E00E9414
:10078000AA028937910568F046E950E064E670E016
:10079000C7010E94690361E070E0C8010E94D102B4
:1007A000E3CF67E084E091E00E94AA028F3091409D
:1007B00068F044E650E066E970E0C7010E94690312
:1007C00062E070E0C8010E94D102EBCF67E084E0F4
:1007D00091E00E94AA028837910508F0A8CF50E066
:1007E00040E070E060E0C7010E94690342E06FE012
:1007F000C8010E94E1028FEF93E224EF8150904004
:100800002040E1F700C00000C6010E94F20090E025
:1008100080E00F900F900F900F900F90089584E05C
:1008200091E00C94A10284E091E00C94A702EE0FF9
:10083000FF1F0590F491E02D0994AEE0B0E0E3E2F3
:10084000F4E00C94C5060D891E8986E08C831A831A
:1008500009838FEF9FE79E838D83AE01475E5F4FD5
:100860006F89788DCE0101960E9440042F813885D2
:10087000020F131FF80110822E96E4E00C94E1069B
:10088000AFE0B0E0E6E4F4E00C94B7067C013B0195
:100890008A01DC0117961C921E92169713968C9172
:1008A00081FFBEC19AE0292EFE0131964F01D7018A
:1008B00013969C91F30193FD859193FF81913F01E4
:1008C000882309F444C1853239F493FD859193FF5F
:1008D00081913F01853229F4B70190E00E942906F9
:1008E000E6CFB12C412C512CBFE1B51538F08B323D
:1008F00009F188F4803201F1833221F157FC3AC0CA
:1009000020ED280F2A3040F556FE1FC0B29C200D66
:100910001124B22E06C08D3291F0803379F768949D
:1009200050F8F30193FD859193FF81913F0181116F
:10093000DBCF20C0689451F8689452F8F2CF6894E5
:1009400053F8EFCF689454F8ECCF429C200D11245B
:10095000422E689455F8E5CF8E3229F456FCF7C044
:10096000689456F8DECF8C3619F4689457F8D9CFCE
:100970008836B9F2982F9F7D95549330C0F0833616
:10098000A1F18337C1F1833509F05BC0D801CD9067
:10099000DD908D016B2D70E056FC02C06FEF7FEF94
:1009A000C6010E9413065C01689457F80AC00C5FE8
:1009B0001F4FEFE3E983AA24A394B12C6401E894C8
:1009C00057F853FC04C04A141B0409F018F5342CE2
:1009D000A114B10431F5332009F469CFB70180E2E5
:1009E00090E00E9429063A94F6CFD8018C91898331
:1009F0000E5F1F4FE0CFF801C190D1908F016B2D9A
:100A000070E056FC02C06FEF7FEFC6010E941E0629
:100A10005C01D5CFB70180E290E00E9429064A949C
:100A2000D2CFF60157FC859157FE81916F01B70136
:100A300090E00E94290631103A94B1E0AB1AB10857
:100A4000C7CF843619F0893609F071C0F80157FE16
:100A500067C061917191819191918F01E52DEF7640
:100A6000DE2E97FF09C090958095709561957F4F18
:100A70008F4F9F4F6894D7F82AE030E0A4010E947E
:100A80005906C82EC818AC2C5D2CD6FE0CC0E894B4
:100A900050F8CB1440F4D4FE05C0D2FC03C05D2D49
:100AA0005E7E552EAB2C54FE93C0FE01EC0DF11D65
:100AB0008081803309F085C0652D697E562E752DA5
:100AC0007870372E53FC93C050FE8DC0BC2CA414FC
:100AD00010F4B40CBA1854FE90C0B70180E390E053
:100AE0000E94290652FE07C088E751FC88E590E085
:100AF000B7010E942906CB1408F48BC0CA94D12CEC
:100B00008FEFC81AD80AC80CD91CD6018E916D0176
:100B1000B70190E00E9429068C149D04B1F75BCFC9
:100B200061917191072E000C880B990B96CFD52CF3
:100B3000E894D4F82AE0853729F1F52DF97FDF2EE6
:100B40008037A1F058F48835A1F08F36D1F0F70145
:100B5000868197812F96E2E10C94D3068837B9F706
:100B6000D4FE02C06894D2F820E10CC06894D4F896
:100B7000F7CF54FE03C02F2F2660D22E20E132E0A3
:100B800002C028E030E0F801D7FE15C04191519134
:100B9000619171914C875D876E877F878F01A4017A
:100BA0006C857D858E859F850E945906C82EC81844
:100BB000E894D7F868CF81919191AC0170E060E042
:100BC000E9CF52FC02C0A3947ACFA394A39477CF29
:100BD000852D867809F473CFF6CFB70180E290E0D7
:100BE0000E942906A394A414C0F3312C74CF342C92
:100BF0003A18A41408F46FCFF8CF852D867809F43D
:100C00007ACF8BE251FE80E257FC8DE2B70190E093
:100C100070CFB70180E390E00E942906BA946BCFB1
:100C20008FEF9FEF97CFFC0105906150704001104E
:100C3000D8F7809590958E0F9F1F0895FC01615005
:100C4000704001900110D8F7809590958E0F9F1FEE
:100C500008950F931F93CF93DF93182F092FEB0164
:100C60008B8181FD09C01FEF0FEF812F902FDF9146
:100C7000CF911F910F91089582FF14C02E813F8163
:100C80008C819D81281739073CF4E881F981CF01D7
:100C900001969983888310838E819F8101969F831B
:100CA0008E83E3CFE885F985812F0995892BA1F300
:100CB000DACFFA01AA27283051F1203181F1E894E6
:100CC0006F936E7F6E5F7F4F8F4F9F4FAF4FB1E03F
:100CD0003ED0B4E03CD0670F781F891F9A1FA11D3A
:100CE000680F791F8A1F911DA11D6A0F711D811D3B
:100CF000911DA11D20D009F468943F912AE0269F00
:100D000011243019305D3193DEF6CF010895462F5E
:100D10004770405D4193B3E00FD0C9F7F6CF462F3F
:100D20004F70405D4A3318F0495D31FD40524193A8
:100D300002D0A9F7EACFB4E0A69597958795779565
:100D40006795BA95C9F700976105710508959B01EC
:100D5000AC010A2E06945795479537952795BA9575
:100D6000C9F7620F731F841F951FA01D08952F924E
:100D70003F924F925F926F927F928F929F92AF922B
:100D8000BF92CF92DF92EF92FF920F931F93CF9378
:100D9000DF93CDB7DEB7CA1BDB0B0FB6F894DEBF0F
:100DA0000FBECDBF09942A88398848885F846E8435
:100DB0007D848C849B84AA84B984C884DF80EE807F
:100DC000FD800C811B81AA81B981CE0FD11D0FB688
:100DD000F894DEBF0FBECDBFED01089510E0CFE364
:100DE000D0E004C0FE010E9417042196C034D10750
:060DF000C9F7F894FFCFE3
:040DF600A0256400D0
:00000001FF
