:100000000C9440000C9468000C9468000C946800F8
:100010000C9468000C9468000C9468000C946800C0
:100020000C9468000C9468000C9468000C946800B0
:100030000C9468000C9468000C9468000C946800A0
:100040000C9468000C9468000C9468000C94680090
:100050000C9468000C9468000C9468000C94680080
:100060000C9468000C9468000C9468000C94680070
:100070000C9468000C9468000C94680057056F0598
:1000800011241FBECFEFD8E0DEBFCDBF11E0A0E04E
:10009000B1E0E6EBF0E102C005900D92A830B107A7
:1000A000D9F721E0A8E0B1E001C01D92A531B20767
:1000B000E1F710E0CFE3D0E004C02197FE010E94F9
:1000C0007705CE33D107C9F70E9438050C944E0846
:1000D0000C94000063E081E191E00E949704969502
:1000E0008795969587954496089564E081E191E01F
:1000F0000E9497049695879596958795089567E051
:1001000081E191E00C949704482F60910C0170916B
:100110000D01CB01019690930D0180930C018EE0AF
:1001200091E00E94C0038FE097E20197F1F700C0D1
:100130000000089587B187B98AB18AB984B18FEF79
:1001400084B981B181B9089581E0809300018091E3
:100150000001882309F466C042E061E080E191E09B
:100160000E94E9040E947F008F359140A0F00E9418
:100170007F008039914078F462E070E080E191E0A6
:100180000E94D9044EE650E06EE670E083E191E013
:100190000E943005E7CF0E947F008139914010F125
:1001A00061E070E080E191E00E94D9044EE650E009
:1001B00061E970E083E191E00E943005ECCF0E949C
:1001C0007F008F30914098F041E061E080E191E064
:1001D0000E94E90441E950E06EE670E083E191E0BD
:1001E0000E9430050E947F008E35914040F30E94AE
:1001F0007F008E30914008F0AACF50E040E070E0E0
:1002000060E083E191E00E9430058091000191E07F
:1002100089278093000182E090E09093020180930F
:10022000010195CF0895FF920F931F93CF93DF9312
:1002300010920801C1E0D4E086E0F82E03E010E05F
:1002400080910801811134C00E946A008B3A9105A7
:1002500070F00E9475008B3A910548F0D09301012F
:1002600010920201809108018C278093080164E0BC
:1002700082E191E00E94BA04882349F0F0920101E2
:1002800010920201809108018C278093080160E0A0
:1002900082E191E00E94BA04882391F21093020156
:1002A00000930101809108018C2780930801C8CF39
:1002B000DF91CF911F910F91FF9008950F931F939E
:1002C000CF93DF930E947500EC010E946A00182F03
:1002D000092F0E946A008B3A910540F0412F502F60
:1002E000BE0183E191E00E943005F3CF0E947500CA
:1002F0008B3A910598F750E040E070E060E083E1D0
:1003000091E00E9430050E947F008139914090F079
:1003100041E065E080E191E00E94E90481E090E045
:1003200090930201809301018091000191E089275F
:1003300080930001DF91CF911F910F91089562E0AA
:1003400070E080E191E00E94D9040E947F0086392C
:10035000910548F44BE950E06AE570E083E191E0F3
:100360000E943005F2CF81E090E0909302018093EB
:1003700001018091000191E0892780930001089597
:100380001F93CF93DF9311E0C6E0D0E0809100018E
:10039000882309F442C00E947F008F35914070F09D
:1003A0000E947F008039914048F44EE650E06EE6AE
:1003B00070E083E191E00E943005EDCF0E947F0064
:1003C00081399140B0F04EE650E061E970E083E1A0
:1003D00091E00E943005F2CF0E947F008F30914063
:1003E00068F041E950E06EE670E083E191E00E9440
:1003F00030050E947F008E35914070F30E947F008F
:100400008F30914018F28091000181278093000184
:10041000D0930201C0930101B9CFDF91CF911F9119
:10042000089560E082E191E00E94BA04882331F0EF
:1004300041E06FE080E191E00E94E90464E082E144
:1004400091E00E94BA04882351F0109202011092A8
:10045000010142E065E080E191E00C94E904089537
:1004600080910A0190910B0120910C0130910D01B6
:100470002817390710F00196FBCF90930B0180935A
:100480000A01089542E06FE080E191E00E94E904F2
:10049000809101019091020183309105C9F04CF4E3
:1004A0008130910579F082309105B1F70E941301F6
:1004B000EFCF8430910549F08630910569F70E94AD
:1004C0001102E6CF0E94A400E3CF0E945E01E0CFBC
:1004D0000E949F01DDCF1092C5008FEC8093C40075
:1004E00088E18093C1008EE08093C20008950C944F
:1004F0006B028091C00085FFFCCF6093C600089519
:10050000EF92FF921F93CF93DF93182FD92F7B0188
:10051000C0E0F701EC0FF11D6081662331F0812FFF
:100520009D2F0E947902CF5FF4CFDF91CF911F9171
:10053000FF90EF9008958091C00087FFFCCF8091DD
:10054000C60008950C947902EF92FF920F931F93C7
:10055000CF93DF93CDB7DEB72A970FB6F894DEBFFF
:100560000FBECDBF8C011F926F9384E091E09F93EB
:100570008F93CE0101967C019F938F930E947D05FE
:10058000B701C8010E9480020F900F900F900F904A
:100590000F900F902A960FB6F894DEBF0FBECDBF16
:1005A000DF91CF911F910F91FF90EF90089580916F
:1005B000C00085FFFCCF6093C6000895089580EACF
:1005C000809303011092B90080E28093B8000895EF
:1005D000FC0180E88083CF010C94DF02982F937098
:1005E000891305C0880F806A8093030108958FEFF7
:1005F0000895FA0194EA24E89093BC008091BC002D
:1006000087FFFCCF809103018093BB002093BC0047
:100610008091BC0087FFFCCF8091B900883161F7E1
:1006200084EA8093BC008091BC0087FFFCCF80915E
:1006300003018093BB0084E88093BC008091BC00E0
:1006400087FFFCCF7093BB0084E88093BC0080914F
:10065000BC0087FFFCCF6093BB0084E88093BC00A4
:100660008091BC0087FFFCCF8091BC0087FFFCCF4E
:1006700084EA8093BC008091BC0087FFFCCF80910E
:1006800003018F5F8093BB0084E88093BC0080915E
:10069000BC0087FFFCCF84E88093BC008091BC0045
:1006A00087FFFCCF8091BB00808384E98093BC00EE
:1006B00080E0089594EA34E89093BC008091BC00F7
:1006C00087FFFCCF809103018093BB003093BC0077
:1006D0008091BC0087FFFCCF8091B900883161F721
:1006E00084EA8093BC008091BC0087FFFCCF80919E
:1006F00003018093BB0084E88093BC008091BC0020
:1007000087FFFCCF7093BB0084E88093BC0080918E
:10071000BC0087FFFCCF6093BB0084E88093BC00E3
:100720008091BC0087FFFCCF84EA8093BC0080915D
:10073000BC0087FFFCCF809103018F5F8093BB00DB
:1007400084E88093BC008091BC0087FFFCCF84ECE0
:10075000222389F0213009F484E88093BC00909131
:10076000BC0097FD06C0FA019091BB009193AF01C8
:10077000F6CF2150EDCF84E98093BC0080E008954E
:1007800094EA24E89093BC008091BC0087FFFCCFE2
:10079000809103018093BB002093BC008091BC003A
:1007A00087FFFCCF8091B900883161F784EA80939C
:1007B000BC008091BC0087FFFCCF80910301809337
:1007C000BB0084E88093BC008091BC0087FFFCCF15
:1007D0007093BB0084E88093BC008091BC0087FFCD
:1007E000FCCF6093BB0084E88093BC008091BC0088
:1007F00087FFFCCF4093BB0084E88093BC008091CE
:10080000BC0087FFFCCF84E98093BC0080E00895A2
:10081000FB01260F372F311DDC018C918150990B84
:10082000862B9F2B2817390718F09C012F5F3F4F0D
:10083000822F8E1B24EA34E82093BC009091BC00E8
:1008400097FFFCCF909103019093BB003093BC00C5
:100850009091BC0097FFFCCF9091B900983161F75F
:1008600094EA9093BC009091BC0097FFFCCF9091CC
:1008700003019093BB0094E89093BC009091BC005E
:1008800097FFFCCFF093BB0094E89093BC0090914D
:10089000BC0097FFFCCFE093BB0094E89093BC00B2
:1008A0009091BC0097FFFCCF982F24E8992369F022
:1008B000FA0131913093BB002093BC003091BC0011
:1008C00037FFFCCF9150AF01F1CF94E99093BC007A
:1008D0000895DF92EF92FF920F931F93CF93DF93D0
:1008E000D82ED92F7B018A01C22F2C2FA801B70146
:1008F0008D2D9D2F0E940804282F30E0E20EF31E5C
:10090000C81B020F131FC111F0CF80E0DF91CF9100
:100910001F910F91FF90EF90DF90089510927C004F
:1009200086E880937A00089510927A000895809165
:100930007C00807E80937C0080917C006770682BB7
:1009400060937C0080917A00806480937A0080912B
:100950007A0084FFFCCF80917A00806180937A00D6
:10096000209178008091790090E0982F8827820F5D
:10097000911D089586B190E0062E02C09595879549
:100980000A94E2F780FF0FC08FE19EE40197F1F730
:1009900000C0000086B190E002C0959587956A95E9
:1009A000E2F78170089580E0089584B18FEF84B9F3
:1009B0000895CB01892B11F415B8089561307105A4
:1009C00019F482E085B9089562307105E1F781E09C
:1009D000F9CF80E08617B1F045B92FEF30E792E00C
:1009E000215030409040E1F700C0000015B82FEFD3
:1009F00030E792E0215030409040E1F700C0000025
:100A00008F5FE8CF089580E021E092E0861781F0C3
:100A100025B9EFE4F3EC3197F1F700C0000095B988
:100A2000EFE4F3EC3197F1F700C000008F5FEECFF9
:100A30000895FC016083418354B121E030E0C90195
:100A400001C0880F6A95EAF701C0220F4A95EAF7BC
:100A5000822B852B886184B9089517BC18BC089532
:100A600015B867BD48BD81EA84BD82E085BD0895A3
:100A70000E949A000E947F008139914030F042E04C
:100A800062E080E191E00E94E90460E082E191E0AF
:100A90000E94BA0481110E94420264E082E191E066
:100AA0000E94BA04882331F30E943002E3CF46E06B
:100AB00065E083E191E00E94190587B187B981E182
:100AC00091E00E948E0480E191E00E94D5048FE0C5
:100AD00091E00E9477028EE091E00C94E8028EE0B3
:100AE00091E00E94DE0281E191E00C949404EE0F0B
:100AF000FF1F0590F491E02D0994AEE0B0E0E3E82B
:100B0000F5E00C9425080D891E8986E08C831A83F4
:100B100009838FEF9FE79E838D83AE01475E5F4F12
:100B20006F89788DCE0101960E94A0052F813885AE
:100B3000020F131FF80110822E96E4E00C94410876
:100B4000AFE0B0E0E6EAF5E00C9417087C013B0169
:100B50008A01DC0117961C921E92169713968C91AF
:100B600081FFBEC19AE0292EFE0131964F01D701C7
:100B700013969C91F30193FD859193FF81913F0121
:100B8000882309F444C1853239F493FD859193FF9C
:100B900081913F01853229F4B70190E00E948907D5
:100BA000E6CFB12C412C512CBFE1B51538F08B327A
:100BB00009F188F4803201F1833221F157FC3AC007
:100BC00020ED280F2A3040F556FE1FC0B29C200DA4
:100BD0001124B22E06C08D3291F0803379F76894DB
:100BE00050F8F30193FD859193FF81913F018111AD
:100BF000DBCF20C0689451F8689452F8F2CF689423
:100C000053F8EFCF689454F8ECCF429C200D112498
:100C1000422E689455F8E5CF8E3229F456FCF7C081
:100C2000689456F8DECF8C3619F4689457F8D9CF0B
:100C30008836B9F2982F9F7D95549330C0F0833653
:100C4000A1F18337C1F1833509F05BC0D801CD90A4
:100C5000DD908D016B2D70E056FC02C06FEF7FEFD1
:100C6000C6010E9473075C01689457F80AC00C5FC4
:100C70001F4FEFE3E983AA24A394B12C6401E89405
:100C800057F853FC04C04A141B0409F018F5342C1F
:100C9000A114B10431F5332009F469CFB70180E222
:100CA00090E00E9489073A94F6CFD8018C9189830D
:100CB0000E5F1F4FE0CFF801C190D1908F016B2DD7
:100CC00070E056FC02C06FEF7FEFC6010E947E0706
:100CD0005C01D5CFB70180E290E00E9489074A9479
:100CE000D2CFF60157FC859157FE81916F01B70174
:100CF00090E00E94890731103A94B1E0AB1AB10834
:100D0000C7CF843619F0893609F071C0F80157FE53
:100D100067C061917191819191918F01E52DEF767D
:100D2000DE2E97FF09C090958095709561957F4F55
:100D30008F4F9F4F6894D7F82AE030E0A4010E94BB
:100D4000B907C82EC818AC2C5D2CD6FE0CC0E89490
:100D500050F8CB1440F4D4FE05C0D2FC03C05D2D86
:100D60005E7E552EAB2C54FE93C0FE01EC0DF11DA2
:100D70008081803309F085C0652D697E562E752DE2
:100D80007870372E53FC93C050FE8DC0BC2CA41439
:100D900010F4B40CBA1854FE90C0B70180E390E090
:100DA0000E94890752FE07C088E751FC88E590E061
:100DB000B7010E948907CB1408F48BC0CA94D12CC8
:100DC0008FEFC81AD80AC80CD91CD6018E916D01B4
:100DD000B70190E00E9489078C149D04B1F75BCFA6
:100DE00061917191072E000C880B990B96CFD52C31
:100DF000E894D4F82AE0853729F1F52DF97FDF2E24
:100E00008037A1F058F48835A1F08F36D1F0F70182
:100E1000868197812F96E2E10C9433088837B9F7E1
:100E2000D4FE02C06894D2F820E10CC06894D4F8D3
:100E3000F7CF54FE03C02F2F2660D22E20E132E0E0
:100E400002C028E030E0F801D7FE15C04191519171
:100E5000619171914C875D876E877F878F01A401B7
:100E60006C857D858E859F850E94B907C82EC81820
:100E7000E894D7F868CF81919191AC0170E060E07F
:100E8000E9CF52FC02C0A3947ACFA394A39477CF66
:100E9000852D867809F473CFF6CFB70180E290E014
:100EA0000E948907A394A414C0F3312C74CF342C6E
:100EB0003A18A41408F46FCFF8CF852D867809F47A
:100EC0007ACF8BE251FE80E257FC8DE2B70190E0D1
:100ED00070CFB70180E390E00E948907BA946BCF8E
:100EE0008FEF9FEF97CFFC0105906150704001108C
:100EF000D8F7809590958E0F9F1F0895FC01615043
:100F0000704001900110D8F7809590958E0F9F1F2B
:100F100008950F931F93CF93DF93182F092FEB01A1
:100F20008B8181FD09C01FEF0FEF812F902FDF9183
:100F3000CF911F910F91089582FF14C02E813F81A0
:100F40008C819D81281739073CF4E881F981CF0114
:100F500001969983888310838E819F8101969F8358
:100F60008E83E3CFE885F985812F0995892BA1F33D
:100F7000DACFFA01AA27283051F1203181F1E89423
:100F80006F936E7F6E5F7F4F8F4F9F4FAF4FB1E07C
:100F90003ED0B4E03CD0670F781F891F9A1FA11D77
:100FA000680F791F8A1F911DA11D6A0F711D811D78
:100FB000911DA11D20D009F468943F912AE0269F3D
:100FC00011243019305D3193DEF6CF010895462F9C
:100FD0004770405D4193B3E00FD0C9F7F6CF462F7D
:100FE0004F70405D4A3318F0495D31FD40524193E6
:100FF00002D0A9F7EACFB4E0A695979587957795A3
:101000006795BA95C9F700976105710508959B0129
:10101000AC010A2E06945795479537952795BA95B2
:10102000C9F7620F731F841F951FA01D08952F928B
:101030003F924F925F926F927F928F929F92AF9268
:10104000BF92CF92DF92EF92FF920F931F93CF93B5
:10105000DF93CDB7DEB7CA1BDB0B0FB6F894DEBF4C
:101060000FBECDBF09942A88398848885F846E8472
:101070007D848C849B84AA84B984C884DF80EE80BC
:10108000FD800C811B81AA81B981CE0FD11D0FB6C5
:10109000F894DEBF0FBECDBFED01089510E0CFE3A1
:1010A000D0E004C0FE010E9477052196C034D1072C
:0610B000C9F7F894FFCF20
:0810B600010100A02564000007
:00000001FF
