:100000000C9440000C9468000C9468000C946800F8
:100010000C9468000C9468000C9468000C946800C0
:100020000C9468000C9468000C9468000C946800B0
:100030000C9468000C9468000C9468000C946800A0
:100040000C9468000C9468000C9468000C94680090
:100050000C9468000C9468000C9468000C94680080
:100060000C9468000C9468000C9468000C94680070
:100070000C9468000C9468000C94680026053E05FA
:1000800011241FBECFEFD8E0DEBFCDBF11E0A0E04E
:10009000B1E0E4E5F0E102C005900D92A636B107AB
:1000A000D9F721E0A6E6B1E001C01D92A537B2075D
:1000B000E1F710E0CFE3D0E004C02197FE010E94F9
:1000C0004605CE33D107C9F70E9412050C941D08CE
:1000D0000C94000048EC50E068EC70E081E791E09F
:1000E0000E940A052FEF81EE94E02150804090405D
:1000F000E1F700C00000089563E08FE691E00E9400
:10010000820496958795969587950596089564E05F
:100110008FE691E00E948204969587959695879543
:10012000089567E08FE691E00C948204482F609177
:100130006A0170916B01CB01019690936B018093E2
:100140006A018CE691E00E94AB038FE097E2019791
:10015000F1F700C00000089587B187B98AB18AB964
:1001600084B18FEF84B981B181B9089542E06FE025
:100170008EE691E00E94D4040E9491008A3A910593
:1001800048F44EE650E06EE670E081E791E00E94B0
:100190000A05F2CF81E090E090937401809373019F
:1001A00008951F93CF93DF9381E08093000111E0C6
:1001B000C2E0D0E080910001882309F44AC00E9487
:1001C00091008F35914070F00E94910080399140EC
:1001D00048F44EE650E06EE670E081E791E00E9460
:1001E0000A05EDCF0E94910081399140B0F04EE6B2
:1001F00050E061E970E081E791E00E940A05F2CFEA
:100200000E9491008B3A910568F041E950E06EE65A
:1002100070E081E791E00E940A050E9491008E350E
:10022000914070F30E9491008A3A910518F650E0CF
:1002300040E070E060E081E791E00E940A05809173
:100240000001812780930001D0937401C093730152
:10025000B1CFDF91CF911F910895FF920F931F931C
:10026000CF93DF9310926601C1E0D4E085E0F82ED1
:1002700003E010E080916601811135C00E947C008E
:10028000853B910550F1D0937301109274018091D8
:1002900066018C278093660160E080E791E00E9410
:1002A000A504882349F0F0927301109274018091A3
:1002B00066018C278093660162E080E791E00E94EE
:1002C000A5048823B9F210937401009373018091FF
:1002D00066018C2780936601CDCF0E948700853B05
:1002E000910588F6D9CFDF91CF911F910F91FF90A3
:1002F00008950F931F93CF93DF930E948700EC0123
:100300000E947C00182F092F0E947C00853B9105DC
:1003100040F0412F502FBE0181E791E00E940A0575
:10032000F3CF0E948700853B910598F750E040E0AD
:1003300070E060E081E791E00E940A050E94910070
:100340008139914030F081E090E090937401809386
:100350007301DF91CF911F910F9108950E94910039
:100360008F35914068F48EE691E00E94EE044BE9EF
:1003700050E064E670E081E791E00E940A05EECF6C
:1003800081E090E09093740180937301089560E0A0
:1003900080E791E00E94A504882331F041E06FE0FE
:1003A0008EE691E00E94D40462E080E791E00E9432
:1003B000A504882351F0109274011092730142E059
:1003C0006FE08EE691E00C94D4040895809168016A
:1003D0009091690120916A0130916B0128173907CA
:1003E00010F00196FBCF9093690180936801089506
:1003F0000F931F93CF93DF930F92CDB7DEB78E018C
:100400000F5F1F4FC8010E9462028091730190919B
:10041000740183309105F1F184F48130910501F18B
:100420008230910539F10097A1F70E94B60062E091
:1004300071E0C8010E946B02E8CF8430910511F190
:100440008530910531F70E94C70165E571E0C8016B
:100450000E946B020F90DF91CF911F910F91089531
:1004600063E171E0C8010E946B020E946A000E9471
:10047000D100CBCF60E271E0C8010E946B020E9404
:100480002D01C3CF6BE271E0C8010E946B020E9494
:100490007901BBCF0E946A006CE371E0C8010E9441
:1004A0006B020E94AE0167E471E0C3CF1092C500F9
:1004B0008FEC8093C40088E18093C1008EE080932C
:1004C000C20008950C9456028091C00085FFFCCFB5
:1004D0006093C6000895EF92FF921F93CF93DF932E
:1004E000182FD92F7B01C0E0F701EC0FF11D6081BF
:1004F000662331F0812F9D2F0E946402CF5FF4CFDD
:10050000DF91CF911F91FF90EF9008958091C000EF
:1005100087FFFCCF8091C60008950C946402EF928F
:10052000FF920F931F93CF93DF93CDB7DEB72A9738
:100530000FB6F894DEBF0FBECDBF8C011F926F9334
:1005400083E691E09F938F93CE0101967C019F9368
:100550008F930E944C05B701C8010E946B020F9057
:100560000F900F900F900F900F902A960FB6F8945F
:10057000DEBF0FBECDBFDF91CF911F910F91FF90D6
:10058000EF9008958091C00085FFFCCF6093C60076
:100590000895089580EA809301011092B90080E2E5
:1005A0008093B8000895FC0180E88083CF010C940B
:1005B000CA02982F9370891305C0880F806A8093B0
:1005C000010108958FEF0895FA0194EA24E89093C9
:1005D000BC008091BC0087FFFCCF8091010180931B
:1005E000BB002093BC008091BC0087FFFCCF8091B2
:1005F000B900883161F784EA8093BC008091BC0027
:1006000087FFFCCF809101018093BB0084E8809339
:10061000BC008091BC0087FFFCCF7093BB0084E8D6
:100620008093BC008091BC0087FFFCCF6093BB002F
:1006300084E88093BC008091BC0087FFFCCF809150
:10064000BC0087FFFCCF84EA8093BC008091BC0093
:1006500087FFFCCF809101018F5F8093BB0084E80E
:100660008093BC008091BC0087FFFCCF84E880931E
:10067000BC008091BC0087FFFCCF8091BB008083D1
:1006800084E98093BC0080E0089594EA34E8909374
:10069000BC008091BC0087FFFCCF8091010180935A
:1006A000BB003093BC008091BC0087FFFCCF8091E1
:1006B000B900883161F784EA8093BC008091BC0066
:1006C00087FFFCCF809101018093BB0084E8809379
:1006D000BC008091BC0087FFFCCF7093BB0084E816
:1006E0008093BC008091BC0087FFFCCF6093BB006F
:1006F00084E88093BC008091BC0087FFFCCF84EA33
:100700008093BC008091BC0087FFFCCF80910101E9
:100710008F5F8093BB0084E88093BC008091BC0015
:1007200087FFFCCF84EC222389F0213009F484E890
:100730008093BC009091BC0097FD06C0FA01909197
:10074000BB009193AF01F6CF2150EDCF84E98093A8
:10075000BC0080E0089594EA24E89093BC00809166
:10076000BC0087FFFCCF809101018093BB002093E8
:10077000BC008091BC0087FFFCCF8091B90088311C
:1007800061F784EA8093BC008091BC0087FFFCCFB6
:10079000809101018093BB0084E88093BC0080912C
:1007A000BC0087FFFCCF7093BB0084E88093BC0043
:1007B0008091BC0087FFFCCF6093BB0084E88093EE
:1007C000BC008091BC0087FFFCCF4093BB0084E855
:1007D0008093BC008091BC0087FFFCCF84E98093AC
:1007E000BC0080E00895FB01260F372F311DDC018E
:1007F0008C918150990B862B9F2B2817390718F065
:100800009C012F5F3F4F822F8E1B24EA34E82093F8
:10081000BC009091BC0097FFFCCF90910101909398
:10082000BB003093BC009091BC0097FFFCCF90912F
:10083000B900983161F794EA9093BC009091BC00A4
:1008400097FFFCCF909101019093BB0094E89093A7
:10085000BC009091BC0097FFFCCFF093BB0094E8E4
:100860009093BC009091BC0097FFFCCFE093BB003D
:1008700094E89093BC009091BC0097FFFCCF982F18
:1008800024E8992369F0FA0131913093BB00209359
:10089000BC003091BC0037FFFCCF9150AF01F1CFCD
:1008A00094E99093BC000895DF92EF92FF920F932A
:1008B0001F93CF93DF93D82ED92F7B018A01C22FAC
:1008C0002C2FA801B7018D2D9D2F0E94F303282FF7
:1008D00030E0E20EF31EC81B020F131FC111F0CF50
:1008E00080E0DF91CF911F910F91FF90EF90DF900B
:1008F000089510927C0086E880937A000895109203
:100900007A00089580917C00807E80937C008091A5
:100910007C006770682B60937C0080917A00806413
:1009200080937A0080917A0084FFFCCF80917A00D6
:10093000806180937A00209178008091790090E026
:10094000982F8827820F911D089586B190E0062E7A
:1009500002C0959587950A94E2F780FF0FC08FE15A
:100960009EE40197F1F700C0000086B190E002C05C
:10097000959587956A95E2F78170089580E00895CE
:1009800084B18FEF84B90895CB01892B11F415B888
:1009900008956130710519F482E085B908956230D7
:1009A0007105E1F781E0F9CF80E08617B1F045B934
:1009B0002FEF30E792E0215030409040E1F700C047
:1009C000000015B82FEF30E792E021503040904002
:1009D000E1F700C000008F5FE8CF089582E085B99D
:1009E00081E085B90895FC016083418354B121E021
:1009F00030E0C90101C0880F6A95EAF701C0220FF3
:100A00004A95EAF7822B852B886184B9089517BC33
:100A100018BC089515B867BD48BD81EA84BD82E061
:100A200085BD08950E94AC0060E080E791E00E94DF
:100A3000A50481110E94F80162E080E791E00E9424
:100A4000A504882389F30E94E601EECF46E065E025
:100A500081E791E00E94F30487B187B98FE691E0C6
:100A60000E9479048EE691E00E94C0048DE691E038
:100A70000E9462028CE691E00C94D3028CE691E035
:100A80000E94C9028FE691E00C947F04EE0FFF1FD5
:100A90000590F491E02D0994AEE0B0E0E2E5F5E0D8
:100AA0000C94F4070D891E8986E08C831A830983D0
:100AB0008FEF9FE79E838D83AE01475E5F4F6F8907
:100AC000788DCE0101960E946F052F813885020F27
:100AD000131FF80110822E96E4E00C941008AFE08A
:100AE000B0E0E5E7F5E00C94E6077C013B018A0104
:100AF000DC0117961C921E92169713968C9181FF1B
:100B0000BEC19AE0292EFE0131964F01D7011396FE
:100B10009C91F30193FD859193FF81913F0188237F
:100B200009F444C1853239F493FD859193FF819195
:100B30003F01853229F4B70190E00E945807E6CFC3
:100B4000B12C412C512CBFE1B51538F08B3209F195
:100B500088F4803201F1833221F157FC3AC020ED54
:100B6000280F2A3040F556FE1FC0B29C200D1124DC
:100B7000B22E06C08D3291F0803379F7689450F828
:100B8000F30193FD859193FF81913F018111DBCFAB
:100B900020C0689451F8689452F8F2CF689453F8E2
:100BA000EFCF689454F8ECCF429C200D1124422ED4
:100BB000689455F8E5CF8E3229F456FCF7C0689456
:100BC00056F8DECF8C3619F4689457F8D9CF8836AA
:100BD000B9F2982F9F7D95549330C0F08336A1F1E0
:100BE0008337C1F1833509F05BC0D801CD90DD902A
:100BF0008D016B2D70E056FC02C06FEF7FEFC601D8
:100C00000E9442075C01689457F80AC00C5F1F4FAE
:100C1000EFE3E983AA24A394B12C6401E89457F884
:100C200053FC04C04A141B0409F018F5342CA11419
:100C3000B10431F5332009F469CFB70180E290E0C7
:100C40000E9458073A94F6CFD8018C9189830E5FA1
:100C50001F4FE0CFF801C190D1908F016B2D70E054
:100C600056FC02C06FEF7FEFC6010E944D075C018A
:100C7000D5CFB70180E290E00E9458074A94D2CFC6
:100C8000F60157FC859157FE81916F01B70190E005
:100C90000E94580731103A94B1E0AB1AB108C7CF9F
:100CA000843619F0893609F071C0F80157FE67C023
:100CB00061917191819191918F01E52DEF76DE2EF9
:100CC00097FF09C090958095709561957F4F8F4FE4
:100CD0009F4F6894D7F82AE030E0A4010E9488076B
:100CE000C82EC818AC2C5D2CD6FE0CC0E89450F869
:100CF000CB1440F4D4FE05C0D2FC03C05D2D5E7E53
:100D0000552EAB2C54FE93C0FE01EC0DF11D8081DD
:100D1000803309F085C0652D697E562E752D78705B
:100D2000372E53FC93C050FE8DC0BC2CA41410F47D
:100D3000B40CBA1854FE90C0B70180E390E00E9452
:100D4000580752FE07C088E751FC88E590E0B701DC
:100D50000E945807CB1408F48BC0CA94D12C8FEF93
:100D6000C81AD80AC80CD91CD6018E916D01B701DA
:100D700090E00E9458078C149D04B1F75BCF6191FD
:100D80007191072E000C880B990B96CFD52CE89407
:100D9000D4F82AE0853729F1F52DF97FDF2E803749
:100DA000A1F058F48835A1F08F36D1F0F701868193
:100DB00097812F96E2E10C9402088837B9F7D4FEA8
:100DC00002C06894D2F820E10CC06894D4F8F7CF40
:100DD00054FE03C02F2F2660D22E20E132E002C045
:100DE00028E030E0F801D7FE15C0419151916191A2
:100DF00071914C875D876E877F878F01A4016C8519
:100E00007D858E859F850E948807C82EC818E89426
:100E1000D7F868CF81919191AC0170E060E0E9CFA3
:100E200052FC02C0A3947ACFA394A39477CF852DCC
:100E3000867809F473CFF6CFB70180E290E00E9484
:100E40005807A394A414C0F3312C74CF342C3A184F
:100E5000A41408F46FCFF8CF852D867809F47ACFE3
:100E60008BE251FE80E257FC8DE2B70190E070CF3B
:100E7000B70180E390E00E945807BA946BCF8FEFE0
:100E80009FEF97CFFC010590615070400110D8F79B
:100E9000809590958E0F9F1F0895FC0161507040C2
:100EA00001900110D8F7809590958E0F9F1F08959F
:100EB0000F931F93CF93DF93182F092FEB018B8193
:100EC00081FD09C01FEF0FEF812F902FDF91CF9190
:100ED0001F910F91089582FF14C02E813F818C8154
:100EE0009D81281739073CF4E881F981CF010196EB
:100EF0009983888310838E819F8101969F838E833F
:100F0000E3CFE885F985812F0995892BA1F3DACF05
:100F1000FA01AA27283051F1203181F1E8946F932A
:100F20006E7F6E5F7F4F8F4F9F4FAF4FB1E03ED0D0
:100F3000B4E03CD0670F781F891F9A1FA11D680F6E
:100F4000791F8A1F911DA11D6A0F711D811D911DA1
:100F5000A11D20D009F468943F912AE0269F112416
:100F60003019305D3193DEF6CF010895462F47707A
:100F7000405D4193B3E00FD0C9F7F6CF462F4F70D5
:100F8000405D4A3318F0495D31FD4052419302D033
:100F9000A9F7EACFB4E0A6959795879577956795D9
:100FA000BA95C9F700976105710508959B01AC01D9
:100FB0000A2E06945795479537952795BA95C9F700
:100FC000620F731F841F951FA01D08952F923F92DB
:100FD0004F925F926F927F928F929F92AF92BF9249
:100FE000CF92DF92EF92FF920F931F93CF93DF93F5
:100FF000CDB7DEB7CA1BDB0B0FB6F894DEBF0FBE52
:10100000CDBF09942A88398848885F846E847D849E
:101010008C849B84AA84B984C884DF80EE80FD80A0
:101020000C811B81AA81B981CE0FD11D0FB6F89416
:10103000DEBF0FBECDBFED01089510E0CFE3D0E0DD
:1010400004C0FE010E9446052196C034D107C9F7AD
:04105000F894FFCF42
:1010540001A0646562757420706172636F75727348
:101064002D2D00737569767265206D75722D2D00B6
:10107400617474656E6472652D2D00737569767282
:1010840065206C756D696572652D2D0064656D69EB
:10109400746F75722D2D0064656D69746F75722D92
:1010A400666169740066696E506172636F7572730C
:0610B4002D2D0025640053
:00000001FF
