:100000000C9440000C9468000C9468000C946800F8
:100010000C9468000C9468000C9468000C946800C0
:100020000C9468000C9468000C9468000C946800B0
:100030000C9468000C9468000C9468000C946800A0
:100040000C9468000C9468000C9468000C94680090
:100050000C9468000C9468000C9468000C94680080
:100060000C9468000C9468000C9468000C94680070
:100070000C9468000C9468000C94680016052E051A
:1000800011241FBECFEFD8E0DEBFCDBF11E0A0E04E
:10009000B1E0E4E3F0E102C005900D92A835B107AC
:1000A000D9F721E0A8E5B1E001C01D92A536B2075D
:1000B000E1F710E0CFE3D0E004C02197FE010E94F9
:1000C0003605CE33D107C9F70E9402050C940D08FE
:1000D0000C94000063E081E691E00E946104969533
:1000E0008795969587954496089564E081E691E01A
:1000F0000E9461049695879596958795089567E087
:1001000081E691E00C946104482F60915C0170914C
:100110005D01CB01019690935D0180935C018EE5BA
:1001200091E00E948A038FE097E20197F1F700C007
:100130000000089587B187B98AB18AB984B18FEF79
:1001400084B981B181B9089581E0809300018091E3
:100150000001882309F466C042E061E080E691E096
:100160000E94B3040E947F008F359140A0F00E944E
:100170007F008039914078F462E070E080E691E0A1
:100180000E94A3044EE650E06EE670E083E691E044
:100190000E94FA04E7CF0E947F008139914010F15C
:1001A00061E070E080E691E00E94A3044EE650E03A
:1001B00061E970E083E691E00E94FA04ECCF0E94CE
:1001C0007F008B3A910598F041E061E080E691E094
:1001D0000E94B30441E950E06EE670E083E691E0EE
:1001E0000E94FA040E947F008E35914040F30E94E5
:1001F0007F008A3A910508F0AACF50E040E070E015
:1002000060E083E691E00E94FA048091000191E0B1
:1002100089278093000182E090E09093020180930F
:10022000010195CF0895FF920F931F93CF93DF9312
:1002300010925801C1E0D4E086E0F82E03E010E00F
:1002400080915801811135C00E946A00853B91055B
:1002500050F1D093010110920201809158018C2736
:100260008093580164E082E691E00E948404882330
:1002700049F0F092010110920201809158018C27FF
:100280008093580160E082E691E00E948404882314
:10029000B9F21093020100930101809158018C275B
:1002A00080935801CDCF0E947500853B910588F65B
:1002B000D9CFDF91CF911F910F91FF9008950F93A8
:1002C0001F93CF93DF930E947500EC010E946A0098
:1002D000182F092F0E946A00853B910540F0412F9D
:1002E000502FBE0183E691E00E94FA04F3CF0E94F2
:1002F0007500853B910598F750E040E070E060E0C4
:1003000083E691E00E94FA040E947F0081399140C7
:1003100060F041E065E080E691E00E94B30481E096
:1003200090E09093020180930101DF91CF911F91A2
:100330000F91089562E070E080E691E00E94A304CE
:100340000E947F008F35914048F44BE950E064E60D
:1003500070E083E691E00E94FA04F2CF81E090E041
:100360009093020180930101089560E082E691E09C
:100370000E948404882331F041E06FE080E691E040
:100380000E94B30464E082E691E00E948404882322
:1003900051F0109202011092010142E065E080E606
:1003A00091E00C94B304089580915A0190915B01FF
:1003B00020915C0130915D012817390710F00196FA
:1003C000FBCF90935B0180935A010895CF93DF9305
:1003D0000F92CDB7DEB78E010F5F1F4FC8010E948D
:1003E000410242E06FE080E691E00E94B304809118
:1003F0000101909102018330910551F174F4813033
:100400009105B1F082309105B1F761E171E0C80169
:100410000E944A020E941301EACF8430910581F0C4
:100420008630910541F70E94B50166E471E019C07C
:1004300064E071E0C8010E944A020E94A400D7CF84
:100440006CE171E0C8010E944A020E945F01CFCFB7
:100450006DE271E0C8010E944A020E949A0168E3BD
:1004600071E0C8010E944A02C2CF1092C5008FEC11
:100470008093C40088E18093C1008EE08093C20025
:1004800008950C9435028091C00085FFFCCF6093E5
:10049000C6000895EF92FF921F93CF93DF93182F1A
:1004A000D92F7B01C0E0F701EC0FF11D60816623BD
:1004B00031F0812F9D2F0E944302CF5FF4CFDF9157
:1004C000CF911F91FF90EF9008958091C00087FF1A
:1004D000FCCF8091C60008950C944302EF92FF92E6
:1004E0000F931F93CF93DF93CDB7DEB72A970FB645
:1004F000F894DEBF0FBECDBF8C011F926F9384E5D1
:1005000091E09F938F93CE0101967C019F938F93EF
:100510000E943C05B701C8010E944A020F900F904B
:100520000F900F900F900F902A960FB6F894DEBFA1
:100530000FBECDBFDF91CF911F910F91FF90EF9034
:1005400008958091C00085FFFCCF6093C600089598
:10055000089580EA809303011092B90080E28093AD
:10056000B8000895FC0180E88083CF010C94A902B3
:10057000982F9370891305C0880F806A80930301B8
:1005800008958FEF0895FA0194EA24E89093BC004F
:100590008091BC0087FFFCCF809103018093BB005A
:1005A0002093BC008091BC0087FFFCCF8091B900F4
:1005B000883161F784EA8093BC008091BC0087FF9A
:1005C000FCCF809103018093BB0084E88093BC0042
:1005D0008091BC0087FFFCCF7093BB0084E88093C0
:1005E000BC008091BC0087FFFCCF6093BB0084E817
:1005F0008093BC008091BC0087FFFCCF8091BC0041
:1006000087FFFCCF84EA8093BC008091BC0087FF09
:10061000FCCF809103018F5F8093BB0084E88093BF
:10062000BC008091BC0087FFFCCF84E88093BC00B5
:100630008091BC0087FFFCCF8091BB00808384E960
:100640008093BC0080E0089594EA34E89093BC0065
:100650008091BC0087FFFCCF809103018093BB0099
:100660003093BC008091BC0087FFFCCF8091B90023
:10067000883161F784EA8093BC008091BC0087FFD9
:10068000FCCF809103018093BB0084E88093BC0081
:100690008091BC0087FFFCCF7093BB0084E88093FF
:1006A000BC008091BC0087FFFCCF6093BB0084E856
:1006B0008093BC008091BC0087FFFCCF84EA8093CC
:1006C000BC008091BC0087FFFCCF809103018F5F4D
:1006D0008093BB0084E88093BC008091BC0087FFBE
:1006E000FCCF84EC222389F0213009F484E8809344
:1006F000BC009091BC0097FD06C0FA019091BB0030
:100700009193AF01F6CF2150EDCF84E98093BC00E7
:1007100080E0089594EA24E89093BC008091BC00A6
:1007200087FFFCCF809103018093BB002093BC0026
:100730008091BC0087FFFCCF8091B900883161F7C0
:1007400084EA8093BC008091BC0087FFFCCF80913D
:1007500003018093BB0084E88093BC008091BC00BF
:1007600087FFFCCF7093BB0084E88093BC0080912E
:10077000BC0087FFFCCF6093BB0084E88093BC0083
:100780008091BC0087FFFCCF4093BB0084E880933E
:10079000BC008091BC0087FFFCCF84E98093BC0043
:1007A00080E00895FB01260F372F311DDC018C916D
:1007B0008150990B862B9F2B2817390718F09C0125
:1007C0002F5F3F4F822F8E1B24EA34E82093BC001A
:1007D0009091BC0097FFFCCF909103019093BB00D8
:1007E0003093BC009091BC0097FFFCCF9091B90072
:1007F000983161F794EA9093BC009091BC0097FF08
:10080000FCCF909103019093BB0094E89093BC00BF
:100810009091BC0097FFFCCFF093BB0094E89093BD
:10082000BC009091BC0097FFFCCFE093BB0094E824
:100830009093BC009091BC0097FFFCCF982F24E8C8
:10084000992369F0FA0131913093BB002093BC00E9
:100850003091BC0037FFFCCF9150AF01F1CF94E94C
:100860009093BC000895DF92EF92FF920F931F9335
:10087000CF93DF93D82ED92F7B018A01C22F2C2F43
:10088000A801B7018D2D9D2F0E94D203282F30E0A3
:10089000E20EF31EC81B020F131FC111F0CF80E040
:1008A000DF91CF911F910F91FF90EF90DF9008950E
:1008B00010927C0086E880937A00089510927A0066
:1008C000089580917C00807E80937C0080917C00E4
:1008D0006770682B60937C0080917A0080648093BD
:1008E0007A0080917A0084FFFCCF80917A00806149
:1008F00080937A00209178008091790090E0982F81
:100900008827820F911D089586B190E0062E02C0BF
:10091000959587950A94E2F780FF0FC08FE19EE4DA
:100920000197F1F700C0000086B190E002C09595F4
:1009300087956A95E2F78170089580E0089584B103
:100940008FEF84B90895CB01892B11F415B8089560
:100950006130710519F482E085B90895623071053E
:10096000E1F781E0F9CF80E08617B1F045B92FEFCC
:1009700030E792E0215030409040E1F700C00000A5
:1009800015B82FEF30E792E0215030409040E1F76A
:1009900000C000008F5FE8CF089580E021E092E082
:1009A000861781F025B9EFE4F3EC3197F1F700C039
:1009B000000095B9EFE4F3EC3197F1F700C00000C7
:1009C0008F5FEECF0895FC016083418354B121E035
:1009D00030E0C90101C0880F6A95EAF701C0220F13
:1009E0004A95EAF7822B852B886184B9089517BC54
:1009F00018BC089515B867BD48BD81EA84BD82E082
:100A000085BD08950E949A0060E082E691E00E9410
:100A1000840481110E94E60164E082E691E00E9474
:100A20008404882389F30E94D401EECF46E065E078
:100A300083E691E00E94E30487B187B981E691E003
:100A40000E94580480E691E00E949F048FE591E0A7
:100A50000E9441028EE591E00C94B2028EE591E095
:100A60000E94A80281E691E00C945E04EE0FFF1F45
:100A70000590F491E02D0994AEE0B0E0E2E4F5E0F9
:100A80000C94E4070D891E8986E08C831A83098300
:100A90008FEF9FE79E838D83AE01475E5F4F6F8927
:100AA000788DCE0101960E945F052F813885020F57
:100AB000131FF80110822E96E4E00C940008AFE0BA
:100AC000B0E0E5E6F5E00C94D6077C013B018A0135
:100AD000DC0117961C921E92169713968C9181FF3B
:100AE000BEC19AE0292EFE0131964F01D70113961F
:100AF0009C91F30193FD859193FF81913F018823A0
:100B000009F444C1853239F493FD859193FF8191B5
:100B10003F01853229F4B70190E00E944807E6CFF3
:100B2000B12C412C512CBFE1B51538F08B3209F1B5
:100B300088F4803201F1833221F157FC3AC020ED74
:100B4000280F2A3040F556FE1FC0B29C200D1124FC
:100B5000B22E06C08D3291F0803379F7689450F848
:100B6000F30193FD859193FF81913F018111DBCFCB
:100B700020C0689451F8689452F8F2CF689453F802
:100B8000EFCF689454F8ECCF429C200D1124422EF4
:100B9000689455F8E5CF8E3229F456FCF7C0689476
:100BA00056F8DECF8C3619F4689457F8D9CF8836CA
:100BB000B9F2982F9F7D95549330C0F08336A1F100
:100BC0008337C1F1833509F05BC0D801CD90DD904A
:100BD0008D016B2D70E056FC02C06FEF7FEFC601F8
:100BE0000E9432075C01689457F80AC00C5F1F4FDF
:100BF000EFE3E983AA24A394B12C6401E89457F8A5
:100C000053FC04C04A141B0409F018F5342CA11439
:100C1000B10431F5332009F469CFB70180E290E0E7
:100C20000E9448073A94F6CFD8018C9189830E5FD1
:100C30001F4FE0CFF801C190D1908F016B2D70E074
:100C400056FC02C06FEF7FEFC6010E943D075C01BA
:100C5000D5CFB70180E290E00E9448074A94D2CFF6
:100C6000F60157FC859157FE81916F01B70190E025
:100C70000E94480731103A94B1E0AB1AB108C7CFCF
:100C8000843619F0893609F071C0F80157FE67C043
:100C900061917191819191918F01E52DEF76DE2E19
:100CA00097FF09C090958095709561957F4F8F4F04
:100CB0009F4F6894D7F82AE030E0A4010E9478079B
:100CC000C82EC818AC2C5D2CD6FE0CC0E89450F889
:100CD000CB1440F4D4FE05C0D2FC03C05D2D5E7E73
:100CE000552EAB2C54FE93C0FE01EC0DF11D8081FE
:100CF000803309F085C0652D697E562E752D78707C
:100D0000372E53FC93C050FE8DC0BC2CA41410F49D
:100D1000B40CBA1854FE90C0B70180E390E00E9472
:100D2000480752FE07C088E751FC88E590E0B7010C
:100D30000E944807CB1408F48BC0CA94D12C8FEFC3
:100D4000C81AD80AC80CD91CD6018E916D01B701FA
:100D500090E00E9448078C149D04B1F75BCF61912D
:100D60007191072E000C880B990B96CFD52CE89427
:100D7000D4F82AE0853729F1F52DF97FDF2E803769
:100D8000A1F058F48835A1F08F36D1F0F7018681B3
:100D900097812F96E2E10C94F2078837B9F7D4FED9
:100DA00002C06894D2F820E10CC06894D4F8F7CF60
:100DB00054FE03C02F2F2660D22E20E132E002C065
:100DC00028E030E0F801D7FE15C0419151916191C2
:100DD00071914C875D876E877F878F01A4016C8539
:100DE0007D858E859F850E947807C82EC818E89457
:100DF000D7F868CF81919191AC0170E060E0E9CFC4
:100E000052FC02C0A3947ACFA394A39477CF852DEC
:100E1000867809F473CFF6CFB70180E290E00E94A4
:100E20004807A394A414C0F3312C74CF342C3A187F
:100E3000A41408F46FCFF8CF852D867809F47ACF03
:100E40008BE251FE80E257FC8DE2B70190E070CF5B
:100E5000B70180E390E00E944807BA946BCF8FEF10
:100E60009FEF97CFFC010590615070400110D8F7BB
:100E7000809590958E0F9F1F0895FC0161507040E2
:100E800001900110D8F7809590958E0F9F1F0895BF
:100E90000F931F93CF93DF93182F092FEB018B81B3
:100EA00081FD09C01FEF0FEF812F902FDF91CF91B0
:100EB0001F910F91089582FF14C02E813F818C8174
:100EC0009D81281739073CF4E881F981CF0101960B
:100ED0009983888310838E819F8101969F838E835F
:100EE000E3CFE885F985812F0995892BA1F3DACF26
:100EF000FA01AA27283051F1203181F1E8946F934B
:100F00006E7F6E5F7F4F8F4F9F4FAF4FB1E03ED0F0
:100F1000B4E03CD0670F781F891F9A1FA11D680F8E
:100F2000791F8A1F911DA11D6A0F711D811D911DC1
:100F3000A11D20D009F468943F912AE0269F112436
:100F40003019305D3193DEF6CF010895462F47709A
:100F5000405D4193B3E00FD0C9F7F6CF462F4F70F5
:100F6000405D4A3318F0495D31FD4052419302D053
:100F7000A9F7EACFB4E0A6959795879577956795F9
:100F8000BA95C9F700976105710508959B01AC01F9
:100F90000A2E06945795479537952795BA95C9F720
:100FA000620F731F841F951FA01D08952F923F92FB
:100FB0004F925F926F927F928F929F92AF92BF9269
:100FC000CF92DF92EF92FF920F931F93CF93DF9315
:100FD000CDB7DEB7CA1BDB0B0FB6F894DEBF0FBE72
:100FE000CDBF09942A88398848885F846E847D84BF
:100FF0008C849B84AA84B984C884DF80EE80FD80C1
:101000000C811B81AA81B981CE0FD11D0FB6F89436
:10101000DEBF0FBECDBFED01089510E0CFE3D0E0FD
:1010200004C0FE010E9436052196C034D107C9F7DD
:04103000F894FFCF62
:10103400010100A0737569767265206D75722D2D9E
:1010440000617474656E6472652D2D007375697624
:101054007265206C756D696572652D2D0064656D12
:1010640069746F75722D2D0064656D69746F757286
:101074002D666169740066696E506172636F757282
:08108400732D2D00256400000E
:00000001FF
