:100000000C943E000C9453000C9453000C94530039
:100010000C9453000C9453000C9453000C94530014
:100020000C9453000C9453000C9453000C94530004
:100030000C9453000C9453000C9453000C945300F4
:100040000C9453000C9453000C9453000C945300E4
:100050000C9453000C9453000C9453000C945300D4
:100060000C9453000C9453000C9453000C945300C4
:100070000C9453000C9453000C94530011241FBE95
:10008000CFEFD8E0DEBFCDBF11E0A0E0B1E0E0EE01
:10009000F4E002C005900D92A230B107D9F70E949A
:1000A00035020C946E020C9400001092C5008FEC87
:1000B0008093C40088E18093C1008EE08093C200E9
:1000C00008950C9455008091C00085FFFCCF60938B
:1000D000C60008950F931F93CF93DF93D82FC92F96
:1000E0008B01F8016081662329F08D2F9C2F0E94DF
:1000F0006300F7CFDF91CF911F910F910895809109
:10010000C00087FFFCCF8091C6000895089580EA63
:10011000809300011092B90080E28093B8000895A6
:10012000FC0180E88083CF010C948700982F9370A6
:10013000891305C0880F806A8093000108958FEFAE
:100140000895FA0194EA24E89093BC008091BC00E1
:1001500087FFFCCF809100018093BB002093BC00FF
:100160008091BC0087FFFCCF8091B900883161F796
:1001700084EA8093BC008091BC0087FFFCCF809113
:1001800000018093BB0084E88093BC008091BC0098
:1001900087FFFCCF7093BB0084E88093BC00809104
:1001A000BC0087FFFCCF6093BB0084E88093BC0059
:1001B0008091BC0087FFFCCF8091BC0087FFFCCF03
:1001C00084EA8093BC008091BC0087FFFCCF8091C3
:1001D00000018F5F8093BB0084E88093BC00809116
:1001E000BC0087FFFCCF84E88093BC008091BC00FA
:1001F00087FFFCCF8091BB00808384E98093BC00A3
:1002000080E0089594EA34E89093BC008091BC00AB
:1002100087FFFCCF809100018093BB003093BC002E
:100220008091BC0087FFFCCF8091B900883161F7D5
:1002300084EA8093BC008091BC0087FFFCCF809152
:1002400000018093BB0084E88093BC008091BC00D7
:1002500087FFFCCF7093BB0084E88093BC00809143
:10026000BC0087FFFCCF6093BB0084E88093BC0098
:100270008091BC0087FFFCCF84EA8093BC00809112
:10028000BC0087FFFCCF809100018F5F8093BB0093
:1002900084E88093BC008091BC0087FFFCCF84EC95
:1002A000222381F0213009F484E88093BC009091EE
:1002B000BC0097FFFCCFFA019091BB0091932150B5
:1002C000AF01EECF84E98093BC0080E0089594EA0A
:1002D00024E89093BC008091BC0087FFFCCF809104
:1002E00000018093BB002093BC008091BC0087FF7D
:1002F000FCCF8091B900883161F784EA8093BC001B
:100300008091BC0087FFFCCF809100018093BB00EF
:1003100084E88093BC008091BC0087FFFCCF709381
:10032000BB0084E88093BC008091BC0087FFFCCFB9
:100330006093BB0084E88093BC008091BC0087FF81
:10034000FCCF4093BB0084E88093BC008091BC004C
:1003500087FFFCCF84E98093BC0080E00895FB0117
:10036000260F372F311DDC018C918150990B862B84
:100370009F2B2817390718F09C012F5F3F4F822FC2
:100380008E1B24EA34E82093BC009091BC0097FFB8
:10039000FCCF909100019093BB003093BC009091F2
:1003A000BC0097FFFCCF9091B900983161F794EAB7
:1003B0009093BC009091BC0097FFFCCF90910001FE
:1003C0009093BB0094E89093BC009091BC0097FF81
:1003D000FCCFF093BB0094E89093BC009091BC00DC
:1003E00097FFFCCFE093BB0094E89093BC00909102
:1003F000BC0097FFFCCF982F24E8992369F0FA01FD
:1004000031913093BB002093BC003091BC0037FF8A
:10041000FCCF9150AF01F1CF94E99093BC000895C7
:10042000DF92EF92FF920F931F93CF93DF93D82E1B
:10043000D92F7B018A01C22F2C2FA801B7018D2D46
:100440009D2F0E94AF01282F30E0E20EF31EC81B43
:10045000020F131FC111F0CF80E0DF91CF911F91E8
:100460000F91FF90EF90DF90089500D0CDB7DEB7E9
:100470008FEF84B95E0182E0A80EB11CC5010E9415
:1004800090008E010F5F1F4FC8010E946100C801DC
:100490000E947F00F82EC8010E947F00DF2CC82E2A
:1004A000FF24F3944801EE24E3940F2D10E00C1583
:1004B0001D0558F4C4010E947F00482FB801C501F2
:1004C0000E946701E5B8F394F0CF15B8C5010E940A
:1004D000860090E080E00F900F900895F894FFCF91
:0204E000A0007A
:00000001FF
