:100000000C943E000C9453000C9453000C94530039
:100010000C9453000C9453000C9453000C94530014
:100020000C9453000C9453000C9453000C94530004
:100030000C9453000C9453000C9453000C945300F4
:100040000C9453000C9453000C9453000C945300E4
:100050000C9453000C9453000C9453000C945300D4
:100060000C9453000C9453000C9453000C945300C4
:100070000C9453000C9453000C94530011241FBE95
:10008000CFEFD8E0DEBFCDBF11E0A0E0B1E0E4E407
:10009000F5E002C005900D92A230B107D9F70E9499
:1000A0003C020C94A0020C9400001092C5008FEC4E
:1000B0008093C40088E18093C1008EE08093C200E9
:1000C00008950C9455008091C00085FFFCCF60938B
:1000D000C60008950F931F93CF93DF93D82FC92F96
:1000E0008B01F8016081662329F08D2F9C2F0E94DF
:1000F0006300F7CFDF91CF911F910F910895809109
:10010000C00087FFFCCF8091C60008959091C00089
:1001100095FFFCCF8093C6000895089580EA8093F0
:1001200000011092B90080E28093B8000895FC01AC
:1001300080E88083CF010C948E00982F93708913F0
:1001400005C0880F806A8093000108958FEF08959D
:10015000FA0194EA24E89093BC008091BC0087FFE8
:10016000FCCF809100018093BB002093BC00809164
:10017000BC0087FFFCCF8091B900883161F784EA29
:100180008093BC008091BC0087FFFCCF8091000170
:100190008093BB0084E88093BC008091BC0087FF03
:1001A000FCCF7093BB0084E88093BC008091BC00BE
:1001B00087FFFCCF6093BB0084E88093BC008091F4
:1001C000BC0087FFFCCF8091BC0087FFFCCF84EA96
:1001D0008093BC008091BC0087FFFCCF8091000120
:1001E0008F5F8093BB0084E88093BC008091BC004B
:1001F00087FFFCCF84E88093BC008091BC0087FF20
:10020000FCCF8091BB00808384E98093BC0080E0B8
:10021000089594EA34E89093BC008091BC0087FF75
:10022000FCCF809100018093BB003093BC00809193
:10023000BC0087FFFCCF8091B900883161F784EA68
:100240008093BC008091BC0087FFFCCF80910001AF
:100250008093BB0084E88093BC008091BC0087FF42
:10026000FCCF7093BB0084E88093BC008091BC00FD
:1002700087FFFCCF6093BB0084E88093BC00809133
:10028000BC0087FFFCCF84EA8093BC008091BC0057
:1002900087FFFCCF809100018F5F8093BB0084E8D3
:1002A0008093BC008091BC0087FFFCCF84EC2223AC
:1002B00081F0213009F484E88093BC009091BC0067
:1002C00097FFFCCFFA019091BB0091932150AF01B1
:1002D000EECF84E98093BC0080E0089594EA24E89E
:1002E0009093BC008091BC0087FFFCCF80910001FF
:1002F0008093BB002093BC008091BC0087FFFCCFA3
:100300008091B900883161F784EA8093BC008091C4
:10031000BC0087FFFCCF809100018093BB0084E884
:100320008093BC008091BC0087FFFCCF7093BB0022
:1003300084E88093BC008091BC0087FFFCCF609371
:10034000BB0084E88093BC008091BC0087FFFCCF99
:100350004093BB0084E88093BC008091BC0087FF81
:10036000FCCF84E98093BC0080E00895FB01260F58
:10037000372F311DDC018C918150990B862B9F2BDF
:100380002817390718F09C012F5F3F4F822F8E1BD3
:1003900024EA34E82093BC009091BC0097FFFCCF86
:1003A000909100019093BB003093BC009091BC00F1
:1003B00097FFFCCF9091B900983161F794EA909340
:1003C000BC009091BC0097FFFCCF909100019093EE
:1003D000BB0094E89093BC009091BC0097FFFCCFC9
:1003E000F093BB0094E89093BC009091BC0097FF01
:1003F000FCCFE093BB0094E89093BC009091BC00CC
:1004000097FFFCCF982F24E8992369F0FA013191E6
:100410003093BB002093BC003091BC0037FFFCCF71
:100420009150AF01F1CF94E99093BC000895DF9211
:10043000EF92FF920F931F93CF93DF93D82ED92F74
:100440007B018A01C22F2C2FA801B7018D2D9D2F72
:100450000E94B601282F30E0E20EF31EC81B020FE7
:10046000131FC111F0CF80E0DF91CF911F910F9149
:10047000FF90EF90DF90089500D0CDB7DEB78FEFFB
:1004800084B96E0122E0C20ED11CC6010E94970001
:10049000CE0101967C010E946100C7010E947F008D
:1004A000182F482F70E060E0C6010E946E01C7015E
:1004B0000E947F00082F482F61E070E0C6010E9473
:1004C0006E0182E0B82E7E2C8F2C9924939492E0BA
:1004D000A92EEB2CF12CE016F10648F5872D982D6E
:1004E0000E947F00482F95B89FEB27E289E091504A
:1004F00020408040E1F700C00000B701C6010E9423
:100500006E01A5B89FEB27E289E091502040804022
:10051000E1F700C0000015B89FEB27E289E0915099
:1005200020408040E1F700C00000B394D2CF15B85E
:10053000C6010E948D0090E080E00F900F9008951A
:04054000F894FFCF5D
:02054400A00015
:00000001FF
