:100000000C943E000C9453000C9453000C94530039
:100010000C9453000C9453000C9453000C94530014
:100020000C9453000C9453000C9453000C94530004
:100030000C9453000C9453000C9453000C945300F4
:100040000C9453000C9453000C9453000C945300E4
:100050000C9453000C9453000C9453000C945300D4
:100060000C9453000C9453000C9453000C945300C4
:100070000C9453000C9453000C94530011241FBE95
:10008000CFEFD8E0DEBFCDBF11E0A0E0B1E0EEE5FC
:10009000F5E002C005900D92A230B107D9F70E9499
:1000A00062020C94AD020C9400001092C5008FEC1B
:1000B0008093C40088E18093C1008EE08093C200E9
:1000C00008950C9455008091C00085FFFCCF60938B
:1000D000C60008950F931F93CF93DF93D82FC92F96
:1000E0008B01F8016081662329F08D2F9C2F0E94DF
:1000F0006300F7CFDF91CF911F910F910895809109
:10010000C00087FFFCCF8091C60008950C94630067
:10011000089580EA809300011092B90080E28093F4
:10012000B8000895FC0180E88083CF010C94890019
:10013000982F9370891305C0880F806A80930001FF
:1001400008958FEF0895FA0194EA24E89093BC0093
:100150008091BC0087FFFCCF809100018093BB00A1
:100160002093BC008091BC0087FFFCCF8091B90038
:10017000883161F784EA8093BC008091BC0087FFDE
:10018000FCCF809100018093BB0084E88093BC0089
:100190008091BC0087FFFCCF7093BB0084E8809304
:1001A000BC008091BC0087FFFCCF6093BB0084E85B
:1001B0008093BC008091BC0087FFFCCF8091BC0085
:1001C00087FFFCCF84EA8093BC008091BC0087FF4E
:1001D000FCCF809100018F5F8093BB0084E8809307
:1001E000BC008091BC0087FFFCCF84E88093BC00FA
:1001F0008091BC0087FFFCCF8091BB00808384E9A5
:100200008093BC0080E0089594EA34E89093BC00A9
:100210008091BC0087FFFCCF809100018093BB00E0
:100220003093BC008091BC0087FFFCCF8091B90067
:10023000883161F784EA8093BC008091BC0087FF1D
:10024000FCCF809100018093BB0084E88093BC00C8
:100250008091BC0087FFFCCF7093BB0084E8809343
:10026000BC008091BC0087FFFCCF6093BB0084E89A
:100270008093BC008091BC0087FFFCCF84EA809310
:10028000BC008091BC0087FFFCCF809100018F5F94
:100290008093BB0084E88093BC008091BC0087FF02
:1002A000FCCF84EC222381F0213009F484E8809390
:1002B000BC009091BC0097FFFCCFFA019091BB006D
:1002C00091932150AF01EECF84E98093BC0080E090
:1002D000089594EA24E89093BC008091BC0087FFC5
:1002E000FCCF809100018093BB002093BC008091E3
:1002F000BC0087FFFCCF8091B900883161F784EAA8
:100300008093BC008091BC0087FFFCCF80910001EE
:100310008093BB0084E88093BC008091BC0087FF81
:10032000FCCF7093BB0084E88093BC008091BC003C
:1003300087FFFCCF6093BB0084E88093BC00809172
:10034000BC0087FFFCCF4093BB0084E88093BC00D7
:100350008091BC0087FFFCCF84E98093BC0080E0E3
:100360000895FB01260F372F311DDC018C91815040
:10037000990B862B9F2B2817390718F09C012F5FAC
:100380003F4F822F8E1B24EA34E82093BC009091CB
:10039000BC0097FFFCCF909100019093BB0030937D
:1003A000BC009091BC0097FFFCCF9091B9009831B0
:1003B00061F794EA9093BC009091BC0097FFFCCF4A
:1003C000909100019093BB0094E89093BC009091B1
:1003D000BC0097FFFCCFF093BB0094E89093BC0067
:1003E0009091BC0097FFFCCFE093BB0094E8909302
:1003F000BC009091BC0097FFFCCF982F24E8992374
:1004000069F0FA0131913093BB002093BC00309128
:10041000BC0037FFFCCF9150AF01F1CF94E990932E
:10042000BC000895DF92EF92FF920F931F93CF933A
:10043000DF93D82ED92F7B018A01C22F2C2FA80140
:10044000B7018D2D9D2F0E94B101282F30E0E20EC3
:10045000F31EC81B020F131FC111F0CF80E0DF9104
:10046000CF911F910F91FF90EF90DF900895089525
:10047000CB01892B11F415B808956130710519F479
:1004800081E085B9089562307105E1F782E0F9CF26
:1004900080E08617B1F045B92FE73AE196E02150A8
:1004A00030409040E1F700C0000015B82FE73AE176
:1004B00096E0215030409040E1F700C000008F5F8F
:1004C000E8CF089500D00F92CDB7DEB78FEF8AB98D
:1004D00084B95E0123E0A20EB11CC5010E94920006
:1004E0007E0182E0E80EF11CC7010E946100CE018E
:1004F00001966C010E943702C7010E947F00182FED
:1005000000E0470176011F3FF9F0C4010E947F001F
:10051000182F602F70E0482FC5010E94690142E04A
:1005200062E0C7010E9448029FE726E988E99150EE
:1005300020408040E1F700C0000041E062E0C701D8
:100540000E9448020F5FDFCFC5010E94880090E043
:0E05500080E00F900F900F900895F894FFCF69
:02055E00A000FB
:00000001FF
