:100000000C943E000C9452000C9450000C94500040
:100010000C9450000C9450000C9450000C94500020
:100020000C9450000C9450000C9450000C94500010
:100030000C9476000C9450000C9450000C945000DA
:100040000C9450000C9450000C9450000C945000F0
:100050000C9450000C9450000C9450000C945000E0
:100060000C9450000C9450000C9450000C945000D0
:100070000C9450000C9450000C94500011241FBE9E
:10008000CFEFD8E0DEBFCDBF21E0A0E0B1E001C0FE
:100090001D92A230B207E1F70E94C6000C940E0137
:1000A0000C9400001F921FB61F9211248F939F93F0
:1000B0008FE19EE40197F1F700C0000082B18C7FD0
:1000C00082B98091010192E0811191E082B1892B86
:1000D00082B98091010191E0892780930101E09A22
:1000E0009F918F911F901FBE1F9018951F921FB652
:1000F0001F9211248F939F9382B1837F82B9809145
:10010000000198E0811194E082B1892B82B980913D
:10011000000191E0892780930001B19A9F918F910E
:100120001F901FBE1F901895F89481B1836081B90C
:100130005298E89AE9E6F0E08081886080837894BC
:100140000895F89481B18C6081B910928500109265
:100150008400109280008DE08093810082E0809383
:100160006F0080EB96E390938900809388007894E9
:100170000895F89484B18C6084B916BC83E884BD7A
:1001800082E085BD7894089587BD08950E9494000B
:100190000E94A1000E94B90020E0EFE7F0E034E007
:1001A0002F5F27BD4FE788E391E0415080409040AA
:1001B000E1F700C00000822F90E0BF010E94E6003E
:1001C000892B71F785B1832785B9EACF97FB072E75
:1001D00016F4009407D077FD09D00E94FA0007FCBE
:1001E00005D03EF4909581959F4F08957095619547
:1001F0007F4F0895AA1BBB1B51E107C0AA1FBB1F5D
:10020000A617B70710F0A61BB70B881F991F5A95A2
:10021000A9F780959095BC01CD010895F894FFCF82
:00000001FF
