:100000000C943E000C9448000C9448000C9448005A
:100010000C9448000C9448000C9448000C94480040
:100020000C9448000C9448000C9448000C94480030
:100030000C9448000C9448000C9448000C94480020
:100040000C9448000C9448000C9448000C94480010
:100050000C9448000C9448000C9448000C94480000
:100060000C9448000C9448000C9448000C944800F0
:100070000C9448000C9448000C94480011241FBEB6
:10008000CFEFD8E0DEBFCDBF0E94A4000C94E20009
:100090000C940000FC01608341830895FC018FEF04
:1000A00090E0909389008093880090938B008093D8
:1000B0008A00208181E090E0AC0102C0440F551F0E
:1000C0002A95E2F79A01318101C0880F3A95EAF743
:1000D000822B85B90895FC01208181E090E0AC017C
:1000E00002C0440F551F2A95E2F745B925B1318169
:1000F00001C0880F3A95EAF78095822385B9089563
:10010000109289001092880010928B0010928A0041
:10011000FC01208181E090E001C0880F2A95EAF778
:1001200085B908952FEF629FC001112464E670E045
:100130000E94BA00709389006093880016BC83E81F
:1001400084BD82E085BD089500D0CDB7DEB744E020
:1001500063E08E010F5F1F4FC8010E944A0084B107
:100160008FEF84B98AB18AB942E362E3C8010E9481
:100170009200FACF97FB072E16F4009407D077FD74
:1001800009D00E94CE0007FC05D03EF490958195E1
:100190009F4F0895709561957F4F0895AA1BBB1BD3
:1001A00051E107C0AA1FBB1FA617B70710F0A61B77
:1001B000B70B881F991F5A95A9F780959095BC0198
:0801C000CD010895F894FFCF72
:00000001FF
