:100000000C943F000C945C000C945C000C945C001D
:100010000C945C000C945C000C945C000C945C00F0
:100020000C945C000C945C000C945C000C945C00E0
:100030000C945C000C945C000C945C000C945C00D0
:100040000C945C000C945C000C945C000C945C00C0
:100050000C945C000C945C000C945C000C945C00B0
:100060000C945C000C945C000C945C000C945C00A0
:100070000C945C000C945C000C945C001E01112438
:100080001FBECFEFD8E0DEBFCDBF21E0A0E0B1E0E2
:1000900001C01D92A430B207E1F710E0CFE3D0E039
:1000A00004C02197FE010E945301CE33D107C9F746
:1000B0000E940E010C9459010C940000FC01608315
:1000C000418354B121E030E0C90101C0880F6A9535
:1000D000EAF701C0220F4A95EAF7822B852B886147
:1000E00084B90895FC0115B815B867BD68BD45B160
:1000F000208181E090E0BC0102C0660F771F2A9545
:10010000E2F79B012095242325B925B1318101C057
:10011000880F3A95EAF78095822385B916BC81EA63
:1001200084BD82E085BD0895FC0115B815B867BD92
:1001300068BD45B1208181E090E0BC0102C0660F3E
:10014000771F2A95E2F79B012095242B25B925B12D
:10015000318101C0880F3A95EAF78095822B85B9E5
:1001600016BC81EA84BD82E085BD089517BC18BC29
:100170000895EFEF6E9FC001112424E630E0B9012D
:100180000E942B0167BD4E9FC0011124B9010E943E
:100190002B0168BD16BC81EA84BD82E085BD08954F
:1001A00089B18FE19EE40197F1F700C0000089B1A9
:1001B00090E002C0959587956A95E2F78170089561
:1001C00087B18FEF87B90895CB01892B11F418B847
:1001D00008956130710519F488E088B90895623096
:1001E0007105E1F784E0F9CF80E08617B1F048B9F6
:1001F0002FE73AE196E0215030409040E1F700C00F
:10020000000018B82FE73AE196E0215030409040C6
:10021000E1F700C000008F5FE8CF089562E080E062
:1002200091E00E94D000882331F044E06FE083E049
:1002300091E00E94F40090E080E0089583E091E076
:100240000E94E00046E065E081E091E00E945E00EF
:1002500081B181B9089597FB072E16F4009407D059
:1002600077FD09D00E943F0107FC05D03EF4909530
:1002700081959F4F0895709561957F4F0895AA1BB2
:10028000BB1B51E107C0AA1FBB1FA617B70710F081
:10029000A61BB70B881F991F5A95A9F780959095B3
:1002A000BC01CD010895EE0FFF1F0590F491E02DE4
:0602B0000994F894FFCF51
:00000001FF
