:100000000C943E000C9448000C9448000C9448005A
:100010000C9448000C9448000C9448000C94480040
:100020000C9448000C9448000C9448000C94480030
:100030000C9448000C9448000C9448000C94480020
:100040000C9448000C9448000C9448000C94480010
:100050000C9448000C9448000C9448000C94480000
:100060000C9448000C9448000C9448000C944800F0
:100070000C9448000C9448000C94480011241FBEB6
:10008000CFEFD8E0DEBFCDBF0E944F000C948F00B1
:100090000C94000012B8089581E082B9089581E0BF
:1000A00082B98FEF81B990E080E0E7EEF3E0A1E064
:1000B000AF01481B590B30E020E070E060E04115D3
:1000C000510599F412B84150510912B870E060E03E
:1000D000E901C80FD91F6C177D0789F0B2E0BA9506
:1000E000F1F700C06F5F7F4FF6CFB2E0BA95F1F73E
:1000F00000C06F5F7F4F46175707B9F7E4CFA2B92B
:100100002F5F3F4F283E63E03607B9F688519C4F7A
:10011000883BBBE09B0761F690E080E00895F8948F
:02012000FFCF0F
:00000001FF
